:020000040000fa
:080000000002040000000000f2
:020000040000fa
:100008003e0400003e0400003e0400003e040000e0
:100018003e0400003e0400003e0400003e040000d0
:100028003e0400003e0400003e0400009a02000066
:100038003e0400003e0400003e040000b20200003e
:10004800ba0200003e0400003e040000e202000084
:100058002e0400003e0400003e0400003e040000a0
:100068003e0400003e0400003e0400003e04000080
:100078003e0400003e0400003e0400003e04000070
:100088003e0400003e0400003e040000c2020000de
:10009800da0200003e040000880300003604000075
:1000a8003e0400003e0400003e0400003e04000040
:1000b8003e0400003e0400003e0400003e04000030
:1000c8003e0400003e0400003e0400003e04000020
:1000d8003e0400003e0400003e0400003e04000010
:1000e8003e0400003e0400003e0400003e04000000
:1000f8003e0400003e0400003e0400003e040000f0
:100108003e0400003e0400003e0400003e040000df
:100118003e0400003e0400003e0400003e040000cf
:100128003e0400003e0400003e0400003e040000bf
:100138003e0400003e0400003e0400003e040000af
:100148003e0400003e0400003e0400003e0400009f
:100158003e0400003e0400003e0400003e0400008f
:100168003e0400003e0400003e0400003e0400007f
:100178003e0400003e0400003e0400003e0400006f
:100188003e0400003e0400003e0400003e0400005f
:100198003e0400003e0400003e0400003e0400004f
:1001a8003e0400003e0400003e0400003e0400003f
:1001b8003e0400003e0400003e0400003e0400002f
:1001c8003e0400003e0400003e0400003e0400001f
:1001d8003e0400003e0400003e0400003e0400000f
:1001e8003e0400003e0400003e0400003e040000ff
:0801f8003e0400003e0400007b
:020000040000fa
:100208003e0400003e0400003e0400003e040000de
:100218003e0400003e0400003e0400003e040000ce
:100228003e0400003e0400003e0400009a02000064
:100238003e0400003e0400003e040000b20200003c
:10024800ba0200003e0400003e040000e202000082
:100258002e0400003e0400003e0400003e0400009e
:100268003e0400003e0400003e0400003e0400007e
:100278003e0400003e0400003e0400003e0400006e
:100288003e0400003e0400003e040000c2020000dc
:10029800da0200003e040000880300003604000073
:1002a8003e0400003e0400003e0400003e0400003e
:1002b8003e0400003e0400003e0400003e0400002e
:1002c8003e0400003e0400003e0400003e0400001e
:1002d8003e0400003e0400003e0400003e0400000e
:1002e8003e0400003e0400003e0400003e040000fe
:1002f8003e0400003e0400003e0400003e040000ee
:100308003e0400003e0400003e0400003e040000dd
:100318003e0400003e0400003e0400003e040000cd
:100328003e0400003e0400003e0400003e040000bd
:100338003e0400003e0400003e0400003e040000ad
:100348003e0400003e0400003e0400003e0400009d
:100358003e0400003e0400003e0400003e0400008d
:100368003e0400003e0400003e0400003e0400007d
:100378003e0400003e0400003e0400003e0400006d
:100388003e0400003e0400003e0400003e0400005d
:100398003e0400003e0400003e0400003e0400004d
:1003a8003e0400003e0400003e0400003e0400003d
:1003b8003e0400003e0400003e0400003e0400002d
:1003c8003e0400003e0400003e0400003e0400001d
:1003d8003e0400003e0400003e0400003e0400000d
:1003e8003e0400003e0400003e0400003e040000fd
:0803f8003e0400003e04000079
:020000040000fa
:10040000efa820000e7f24000e01880000000000ed
:10041000000020000000e000020032000001200087
:10042000200288000c000700600823000100200063
:1004300011000700000020000000e0000200320070
:100440000000020000000000022e02000000000078
:100450000040da000000fe004440a900402d2000ca
:100460000000e0000300320000002000a00188002e
:100470004440a80000000600910188008000780038
:100480000000eb0015003700e280400032a0b4000d
:100490009101ba00e280400032a0b4009102ba009b
:1004a000e280400032a0b4000002eb00472bde00e7
:1004b000f507b200602ce10004003a000059eb009f
:1004c0008301e900fdff3e00040037006128e100e0
:1004d000010032000082eb00040007001101ba00a5
:1004e0000200e000e8ff3a00000006003159ba00bf
:1004f0008301e9000c0032002159ba008301e900b0
:10050000080032000400e00003003a00e2804000ee
:1005100032a0b400f5ff370011d9ba008301e90019
:10052000faff3a008100e800e180400032a0b40008
:1005300000000600849fbe000000fa008460a9004d
:10054000245480003554800061024200e0824a0059
:1005500024548800355488000080fa004f02be0001
:10056000004006000000fa0084e0a9000080fa00c4
:10057000004006000000fa008500a9000080fa0093
:1005800000400600849fbe000000fa008760a900ba
:10059000045480001554800061024200e0824a0049
:1005a00004548800155488000080fa004f02be00f1
:1005b000004006000000fa008780a9000080fa00d1
:1005c000004006003600f800809fbe00829fbe00fb
:1005d000849fbe00869fbe000000fa008560a900cf
:1005e0001480200014427800e04f520005003a00c9
:1005f00024548000355480004454880055548800a9
:100600001300370026548000375480004454800083
:10061000555480000403530085835b00a400200030
:1006200005002000840f5300858f5b000800360012
:100630002454800035548000445488005554880068
:100640000042eb000443780015802000864a7800c1
:10065000158020009542780004c2b30084cf520078
:1006600009003600448220001442780081d428001a
:1006700004407800310507000042eb000443780095
:1006800015802000864a78001480200014427800eb
:100690000483fb0034118000844278002480200011
:1006a00004024300054a78001480200014427800b8
:1006b0000482fb008482e80004802000048242005f
:1006c00014427800ea4f520004003a0014c0b3000c
:1006d0000443780025822000864a78001480200098
:1006e000144278000442e80004437800158020009a
:1006f000864a78000080fa004f03be004f02be0019
:100700004f01be004f00be003600f9000040060059
:100710003600f800809fbe00829fbe00849fbe000e
:10072000869fbe000000fa0087c0a9001480200048
:1007300014427800e04f520005003a002454800033
:100740003554800044548800555488001300370005
:100750002654800037548000445480005554800053
:100760000403530085835b00a400200005002000e3
:10077000840f5300858f5b000800360024548000ee
:100780003554800044548800555488000042eb00e2
:100790000443780015802000864a780015802000e8
:1007a0009542780004c2b30084cf5200090036009d
:1007b000448220001442780081d42800044078004c
:1007c000de0407000042eb0004437800158020009f
:1007d000864a780014802000144278000483fb00cd
:1007e000b411800084427800248020000402430079
:1007f000054a780014802000144278000482fb002f
:100800008482e800048020000482420014427800c0
:10081000ea4f520004003a0014c0b30004437800c9
:1008200025822000864a7800148020001442780037
:100830000442e8000443780015802000864a7800ce
:100840000080fa004f03be004f02be004f01be0001
:100850004f00be003600f900004006000000fa001c
:100860008580a9000080fa00004006000000fa0020
:1008700087e0a9000080fa00004006000040da008e
:100880000000fe0003f0a200889fbe008a9fbe0009
:100890008c1f7800fa000700010133006450e1006a
:1008a0004f0032006420e1005200320003826c00ed
:1008b00007003b000905d0000306d000820f54005a
:1008c0000c065d0002003900020032008901780048
:1008d000030678008582550004003d000003fd00fa
:1008e0008103fd008502ea008b854200840f7200bf
:1008f00002003b0060001000e08018006011b800aa
:100900000005eb007a28e1000a00390006007800b3
:10091000c75ddd00f707b200878075002d00370046
:10092000828171000a017800610560008180d10038
:100930000080d3008502e900f9ff3b000604400077
:100940008784480002003b0060041400e0841c001f
:100950000988a300070032008a817100828171003a
:10096000610164008904d1000884d3008b05e8008c
:10097000170037000978a30013003a000b00e000cd
:10098000130034008b05e9000804440089844c00fe
:100990000a4474000978a3000d003a000b00e0003f
:1009a000070034008b05e9000804440089844c00ea
:1009b00001003a000b0020000978a300f7ff320085
:1009c0000001eb0002003700828171000a0178000b
:1009d000700007000cf0a70001f0a000b90037007c
:1009e0006420e10002003a00838f6c00b9003300fc
:1009f0000801be000200be00b2003700889fbe00a2
:100a00008a9fbe008c1f78009d000700a400330061
:100a100003866c006450e1002e0032006420e10087
:100a2000330032006150e1002f0032006120e1000c
:100a30003100320085855500eb07b0000900200029
:100a400008042000050037000804440089844c0095
:100a50000a0031000603430087834b000001530066
:100a600081815b00f8ff33000203be000800a00094
:100a70000804440089844c00f6ff3900c639dd00c3
:100a80008301730001003200130020008904d100ab
:100a90000884d3000998a300050032000800a700cd
:100aa0000300a0008904d1000884d3008b05e8006e
:100ab0008904d1000884d3000001eb000281d20038
:100ac0003400070001f0a1000cf0a70001f0a00025
:100ad0007c0037006420e1007e0032000801be0087
:100ae0000200be00f7ff37006120e100790032000c
:100af0006000b800f3ff37000000200001f8270075
:100b0000f0ff370014002000f6013700f4ff2f003b
:100b1000f40137000001be00440007000470a70084
:100b200003f0a10003f8a30013003a006509b10027
:100b300010003200090035006928e100020035008c
:100b400001002800000005000000400081804800ee
:100b50008502e900fcff3a0000000600f88f420021
:100b6000050035008100d1000080d3008502e80037
:100b7000fcff3a00000006008000eb0000000500ca
:100b80004f89de0082017800f10137006011b80062
:100b9000ff01370081002000618055000b003d00ff
:100ba0000b00200061fe2f000100e1001d00340059
:100bb00082817100610164008904d1000884d3003e
:100bc0000000e800faff3a007100200061006400b4
:100bd000030070000200600009003200610444005c
:100be000e0844c000988a500050032008b05e80070
:100bf0006808e10002003a008904d1000884d300ab
:100c0000f20f20000258e10005003d00c75ddd0045
:100c1000f907b2008980750008007800000006001e
:100c20000bf827008b00780000000500c70ade00e3
:100c3000f107b200f50fb20008003200e1cf420028
:100c4000020032000170a00024000500810f700036
:100c5000010032000408050044000500810f700007
:100c600002003a00140005008502e900000040007f
:100c700081c04800fcff3b000170a000240005007b
:100c80000004be00e9ff07000003be000405be002b
:100c90000200be00e5ff0700844f7500000006005b
:100ca0000200be006450e100050036006420e1004f
:100cb000020036000968a30001003a000800be00e7
:100cc0000160a0004f0678004f05be004f04be0033
:100cd00000000600f0ff2f00f1ff2700f9ff3700aa
:100ce000889fbe008a9fbe008c1f7800e4ff07002b
:100cf000ebff330003866c006450e10024003200f7
:100d00006420e100270032006150e100220032003f
:100d10006120e100210032008b854200eb07b10029
:100d20000134b800003ab8000804420089844a003f
:100d3000013ab8000030b8008880400009014a003c
:100d40000400330000004000818048000201490097
:100d50008b05e900c909dd00830170000100320044
:100d600013002000c814de004814dd004709de002f
:100d70001200b200c808de000884700085ff07007a
:100d800001f0a1000cf0a70001f0a000cdff37009a
:100d90006120e100cfff32000801be000200be006a
:100da000f7ff37006150e100fcff3a00c9ff370050
:100db0006022b800060220000000d0008180d2002e
:100dc0000482d2008582d2000000a00002025200fc
:100dd00083825a00030031000202420083824a00eb
:100de0000000a1000603e900f3ff3a00000006003e
:100df000889fbe008a9fbe003004be002005be0052
:100e00000404440085844c0006054d0087854d0090
:100e10000898be000a90be000440e10005c8e10049
:100e200006d0e10007d8e100020031006800400070
:100e30001008e8004f05be004f04be000000060089
:100e40001000fa00889fbe008a9fbe00110020009b
:100e50000605be000404be003002be002003be0032
:100e6000c4b79f00d5b79f00e6b79f00f7b79f00b4
:100e70000802520089825a000a035b008b835b00e0
:100e800084bf9f0095bf9f00a6bf9f00b7bf9f0074
:100e90000498be000698be004fb29700dfb29700dc
:100ea0006fb39700ffb397000820e10009a8e100a5
:100eb0000ab0e1000bb8e100010039008000eb004e
:100ec0004f05be00108810004f04be000080fa00dd
:100ed000000006001400fa00889fbe008a9fbe0032
:100ee0008c9fbe000006eb003e000700ccb79f00c1
:100ef000bcb79f00acb79f009cb79f008cb79f000a
:100f00000605be000404be000d0420004fb3970088
:100f1000bfb29700860343002fb29700e00f530043
:100f200004003d003d0007000f004000b0ff070037
:100f300003003700390007000f004000c0ff070022
:100f4000cfb2970095bf9f00e08f52000900350097
:100f50002b00070014002000050020006033b800bb
:100f600000007200818072000201730083817300af
:100f70001c0007000c06e8008d0f5600e3ff3a0046
:100f80001fba9700e00f520005003d000802be00a6
:100f90000a03be0000fe2f000f00400094ff070070
:100fa0004faa9700e00f520008003a000fb49700d4
:100fb0009fb497002fb59700bfb59700d8b79f0093
:100fc000e9b79f00fab79f008bbf9f000c00070096
:100fd0004f06be004f05be004f04be000080fa0061
:100fe00000000600010007000000060090b79f0007
:100ff000a1b79f00b2b79f00c3b79f0000000600d3
:1010000001000700000006001fb09700afb0970076
:101010003fb19700cfb19700000006004f2bde00d4
:10102000f9ff070086837300858242004f23de00ac
:10103000a7b79f00868272000402420095b79f0006
:10104000ffaa97004f2bde00858242000602720045
:1010500084b79f006faa97004f23de00040242006e
:1010600086827200f5af9f004f18de00000272000a
:10107000e5ff0700e4af9f000000400081804800ca
:1010800002014900838149000802be000a03be0034
:10109000d6ff070000fe2f0000000600881f780022
:1010a00018002000881f78008aff07008f87e9005a
:1010b0004f04780000000600801feb0085ff07004a
:1010c0008f87e90000000600889fbe008a9fbe004f
:1010d000e00f5000e08f5800e00f5900e08f5900fa
:1010e0000c003d006044b8006055b800000054009a
:1010f00081805c0002015d0083815d00180020009a
:101100001500070008003d00180007000004eb0070
:10111000050037000004eb000f00070002003d004f
:101120001200070018002000dcff0700e00f540049
:10113000060032006022b8006033b80000005200a0
:1011400081805a0002015b0083815b004f05be0075
:101150004f04be0000000600e00f5200e08f5a006e
:10116000e00f5b00e08f5b00000006006044b80009
:101170006055b8000402540085825c0006035d00df
:1011800087835d0000000600889fbe008a9fbe0026
:101190008c1f7800e00f5000e08f5800e00f5900de
:1011a000e08f59000d003d006044b8006055b80064
:1011b0001c0020000000540081805c0002015d00e2
:1011c00083815d000820e10009a8e1000ab0e10088
:1011d0000bb8e1000d003d00080037000006eb00f1
:1011e000e00f5200e08f5a00e00f5b00e08f5b00e1
:1011f00006003d006044b8006055b8000402540089
:1012000085825c0006035d0087835d00aaff0700fe
:10121000e00f5600060032006022b8006033b800cc
:101220000000520081805a0002015b0083815b0054
:101230004f0678004f05be004f04be0000000600b8
:10124000889fbe008a9fbe008c1f78000006eb00be
:10125000e00f5000e08f5800e00f5900e08f590078
:1012600007003d006044b8006055b8001c00200035
:101270000000540081805c0002015d0083815d00fc
:10128000e00f5200e08f5a00e00f5b00e08f5b0040
:1012900007003d006044b8006055b8000c00a20093
:1012a0000402540085825c0006035d0087835d00b4
:1012b00066000700e00f5600060032006022b8000a
:1012c0006033b8000000520081805a0002015b00c8
:1012d00083815b004f0678004f05be004f04be00bf
:1012e00000000600889fbe008a9fbe00841f780011
:1012f00063fe07004f00780011003300f0ff2f005d
:10130000838f6c0006003b00040565000a00a700ff
:101310000800370009f0a600100020000800370080
:10132000820f5400838f5c000300390010002000fe
:1013300001003e000000200009f0a7000000ea00c4
:101340004f05be004f04be000000e0000000060094
:10135000881f7800030478000300e00007003d00c8
:1013600060001000e080180060011900e0811900a1
:1013700002003b0001f02d000300370004000700cd
:1013800008f0a70001f0a0004f047800000006005c
:10139000889fbe008a9fbe00008270000402710018
:1013a00004827100260032000004be000200be006c
:1013b0006011b8006b092000950220000182cf0067
:1013c0000a0039000541b1000082cf000700390052
:1013d0000541b1000982cf00040039000541b10088
:1013e0000882cf00010039000541b10005425200da
:1013f000120032000a003b0082817100610164002a
:101400008100d1000080d3008984d3000884d300f8
:101410008b05e8000442e800f7ff3a0007003700b8
:101420000804440089844c00000048008180480082
:101430008b05e9000442e900f9ff3a00d5fd0700f9
:101440004f05be004f04be0000000600889fbe008e
:101450008a9fbe008c9fbe000404b8000506b80039
:101460008904460060854e000606b8000a0546005d
:10147000e0854e000706b8008b054600040eb80054
:10148000890446000a854e00e0854d00050eb8002f
:101490000a0546008b854e00060eb8008b054600f7
:1014a0000416b8000a0546008b854e000516b800e4
:1014b0008b054600041eb8008b0546000800be00e0
:1014c0000a01be004f06be004f05be004f04be001d
:1014d0000000060002003700e04f52000b0032000f
:1014e000000378008102780030427800b14f52004a
:1014f000f9ff32001000200016437800954f53008a
:10150000030031000080eb00000006000000eb004b
:0415100000000600d1
:020000040000fa
:1015140063680000656300006b530000756d000094
:10152400203a0000200000000a5600006572000006
:101534006966000063680000656300006b53000087
:10154400756d0000203a0000200000000a00000031
:10155400457200007265000075720000206400008e
:10156400616e0000732000006c61000020630000c5
:1015740068650000636b0000537500006d2e000069
:1015840020540000726100006d650000206e0000b0
:101594006f6e00002070000072690000732000006c
:1015a400656e0000206300006f6d00007074000021
:1015b400650a00000047000030000000547200007b
:1015c400616d0000652000004d6f0000757600001d
:1015d400656d0000656e00007420000074720000e8
:1015e4006169000074650000650a0000004700009e
:1015f400340000004572000072650000757200003e
:10160400204c000065740000747200006520000026
:10161400546500006d700000730a0000005400005f
:10162400726100006d6500002041000074740000c8
:10163400656e000074650000207400007261000093
:1016440069740000656500000a000000473200006c
:101654003800000054720000616d00006520000035
:10166400486f00006d6900006e6700002074000080
:101674007261000069740000656500000a000000e2
:101684004739000030000000506100007320000062
:10169400656e0000636f0000726500002049000061
:1016a4006d700000656d0000656e000074650000db
:1016b400650a000000540000726100006d650000be
:1016c400204300006f6e0000666900006720000080
:1016d400747200006169000074650000650a00000e
:1016e400004700003931000000450000727200001c
:1016f4006575000072200000436f00006d6d0000ee
:10170400616e000064650000204700002d63000046
:101714006f640000650a0000004d000031310000d4
:101724003200000054720000616d0000652000006a
:1017340041720000726500007420000055720000c0
:10174400676500006e63000065200000747200008d
:101754006169000074650000650a0000004900002a
:101764006c200000666100007574000020520000c7
:101774006573000065740000206c000065200000a3
:1017840050490000430a0000004d000031310000c0
:10179400370000004d3200003034000000410000ea
:1017a4006e6700006c65000020580000203a0000bd
:1017b4002000000045720000726500007572000090
:1017c4002050000061720000616d0000657400002b
:1017d4007265000020540000726100006d65000015
:1017e4000a000000416e0000676c000065200000e4
:1017f4005a2000003a2000000054000072610000ea
:101804006d65000020430000686100006e67000001
:10181400656d0000656e00007420000056690000cc
:10182400746500007373000065200000747200008a
:101834006169000074650000650a0000004d000045
:10184400333000003000000054720000616d00006d
:10185400652000004a6f00007565000072200000da
:10186400536f00006e200000747200006169000074
:1018740074650000650a0000004d0000333000006c
:101884003100000054720000616d0000652000000a
:1018940043680000616e000067650000722000006c
:1018a4005049000044200000747200006169000087
:1018b40074650000650a0000004d00003336000026
:1018c40030000000416e0000676c000065200000dd
:1018d40053610000766f0000782000003a20000079
:1018e400004d00003430000030000000547200004d
:1018f400616d000065200000436100006e6300001c
:10190400656c0000207400007261000069740000be
:10191400656500000a0000004d350000303000000d
:1019240000540000726100006d6500002045000055
:1019340063720000697200006520000045450000e4
:10194400505200004f4d00002074000072610000ee
:1019540069740000656500000a0000004d35000050
:101964003031000000540000726100006d65000019
:10197400204c00006972000065200000454500000d
:10198400505200004f4d00002074000072610000ae
:1019940069740000656500000a00000045720000db
:1019a4007265000075720000204300006f6d000036
:1019b4006d6100006e640000652000004d2d000084
:1019c400636f0000646500000a00000045720000b7
:1019d4007265000075720000204c000069730000fd
:1019e4007465000020540000726100006d65000001
:1019f4000a000000446500006275000074200000c5
:101a0400636f00006465000020500000494300003b
:101a14000a00000047300000004700003238000090
:101a2400005400007261000069740000656d0000dc
:101a3400656e00007420000070720000656d000087
:101a44006174000075720000656500000a00000002
:101a5400456e0000636f00007265000020e0000026
:101a64002074000072610000697400006572000057
:101a7400203a000020000000207400007261000081
:101a84006d650000730a000000000000457200004c
:101a94007265000075720000206200007566000027
:101aa4006665000072200000554100005254000099
:081ab400310a000000000000ef
:020000040000fa
:101abc000200fa00004f78001147980004802000c3
:101acc00144278009e4f52000a003a0000000000b9
:101adc00151180000420200004826200e00f5200e7
:101aec00fbff3a001e4290000482fb002411880088
:101afc000d00370044822000144278009e4f5200a3
:101b0c0009003a000000000095118000042020001c
:101b1c0004826200e00f5200fbff3a001e4290006c
:101b2c000482fb00a41188000080fa00000006006b
:101b3c000400fa00004f7800110798001e02900074
:101b4c0014427800844078001e407800d8ff0700cb
:101b5c001e029000144278000482fb000402ea008a
:101b6c004f22de00044278009e0290008502e800bd
:101b7c0015079800e04f5200f0ff3a000080fa0081
:101b8c00000006001600fa0000579800120f98008b
:101b9c00230f98000042eb00044f78001e0a9000bf
:101bac0004007800080f07000002780005002000f0
:101bbc00140f9800250f98002b0037001e0a900078
:101bcc00ae0a90001407980025079800060037000d
:101bdc001e029000ae0290006a025200e0825a008f
:101bec0014079800250798001e039000ae03900080
:101bfc009400200005002000840f5300858f5b00ab
:101c0c00f3ff3e009e4278000582fb009e0290008e
:101c1c008542780004024700654298001e42780015
:101c2c000483fb000482fb00040247006442900022
:101c3c0007c3b30087424200060247006542980082
:101c4c001e4fe8001e0a9000ae0a9000a200200071
:101c5c00030020000400be0052fc07000002be007e
:101c6c00140f9800250f98001e0b9000ae0b9000df
:101c7c009400200005002000840f5300858f5b002a
:101c8c00ceff3e001e0a9000ae0a90000403b00086
:101c9c000580b000140f9800250f98009e42780024
:101cac000582fb009e0a90008542780004024700e2
:101cbc00654298001e4fe8006022b8001407980097
:101ccc0025079800150037001e4278000483fb009e
:101cdc00070020001e029000ae0290000402530088
:101cec0085825b0061025200e0825a006603470065
:101cfc000402430014427800844078000e50900097
:101d0c006bff07001e029000ae02900061024200c1
:101d1c00e0824a0014079800250798001e427800bc
:101d2c000483fb00070020001e029000ae0290000e
:101d3c00840f5300858f5b00e3ff3e000080fa00a8
:101d4c00000006000a00fa00881f7800204798005f
:101d5c002207980033079800014f98000042eb00cf
:101d6c00044f780018c0b3006011b8002e0090002a
:101d7c00be00900060fb070000027800e00f5200ec
:101d8c00010035000044eb00e04f54000800320025
:101d9c00d1c2b3002e40900045ff07002e029000e8
:101dac00be02900005f0a2002407980035079800a9
:101dbc002e009000be00900053fb07000002be00f6
:101dcc000401be002e4090006eff0700e1c2b3007c
:101ddc002e40900036ff07002e009000be009000b1
:101dec0049fb07000002be000400be0064fb0700b4
:101dfc000002be000401be002e009000be00900048
:101e0c009dfa07000002be002407980035079800d1
:101e1c002500370002002000031224002e00900041
:101e2c00be009000abfb07000002be002407980028
:101e3c00350798002e009000be00900032fb070082
:101e4c000002be00144798001e4290000443b000ec
:101e5c00144798009e4090002e40900014ff0700fd
:101e6c001e4fe8002e009000be00900026fb0700dd
:101e7c000002be00044278000482fb00cfa2de0008
:101e8c000400be003bfb07000002be000401be00c4
:101e9c002e009000be00900077fa07000002be00f2
:101eac0024079800350798000e4a90009e4278004f
:101ebc0084cf5200d7ff39004f0478000080fa001d
:101ecc00000006003c00fa00889fbe008a9fbe00fe
:101edc00207798000042eb00044f78000042eb00a2
:101eec00144798000042eb00244798000042eb0096
:101efc00344798006022b8002407980035079800f2
:101f0c006022b800540798006507980014c0b3000d
:101f1c00044f98000042eb0014479800150037005e
:101f2c000042eb00044f78000c0037001e4290007a
:101f3c000482fb009e4078000183fb006522b900ff
:101f4c000402780004024700060242006e024200be
:101f5c008042eb00054a78001e4fe8001e427800d4
:101f6c00e44f5200f1ff36001e4290000442e8009c
:101f7c00144798001e429000e64f5200e8ff3600ce
:101f8c000042eb00144798000042eb00044f78002d
:101f9c008a0037002e7290000482fb008402e90054
:101fac001e4378000682fb00c52add0084824200b5
:101fbc0074842000048242009442780014c4b3005c
:101fcc0084cf5200160032000e4a9000e14f5200ae
:101fdc0013003a002e7290000482fb008402e90088
:101fec009e4378000782fb00c52add0084824200f4
:101ffc007484200004824200144278000402fb0026
:10200c00cfa2de002e039000be0390000602420019
:10201c0087824a0024079800350798000200370091
:10202c000042eb00044f98002e7290000482fb00db
:10203c008402e9009e4078000182fb00c52add0085
:10204c00848242007484200004824200944278000e
:10205c00f4c2b30084cf5200270034002e729000db
:10206c000482fb008402e9001e4378000682fb0018
:10207c00c52add0084824200748420000482420060
:10208c009442780094c3b30084cf52001a003c00f1
:10209c001e429000e04f5200170032002e7290004a
:1020ac000482fb000403e9009e4378000782fb00d6
:1020bc00ae7290008582fb008503e9009e4078009b
:1020cc008182fb00c53bdd008583430075842000c5
:1020dc0085824300954278008543780005cdb30096
:1020ec0085c243004533dd000403430074842000a3
:1020fc0004024300054a78001e4290000482fb0053
:10210c00ae4290008583fb00ae7290008582fb008e
:10211c000503e9009e4078008182fb004533dd0019
:10212c0005034300758420008502430015437800a5
:10213c006522b9000402780004024700070242003d
:10214c006e024200064a78001e4fe8002e429000b4
:10215c000442e800244798002e7290000482fb0091
:10216c008402e9001e4378000682fb00c52add00cc
:10217c0084824200748420000482420094427800dd
:10218c0004c2b30084cf52000c003a001e429000ef
:10219c000442e800144798001e4fe8000042eb0090
:1021ac00244798002e029000be0290000402b0005a
:1021bc000580b00024079800350798002e72900017
:1021cc000482fb008402e9009e4378000782fb0036
:1021dc00c52add00848242007484200004824200ff
:1021ec0014427800ea4f52006aff3a001e429000f7
:1021fc000442e8001447980014c0b3003447980018
:10220c000042eb00244798006e0347001e429000ea
:10221c000482fb000402e9006522b9000402780084
:10222c000402430042c0b30011c0b30004007800a4
:10223c00d20d07000002be005407980065079800f5
:10224c002e039000be03900004fe2f00f5ff2f001c
:10225c000602420087824a0024079800350798003e
:10226c002e039000be039000f40f20000500200008
:10227c0006007800070378008403780005027800d4
:10228c00070060000402630005002000c022dd008e
:10229c00040020000403be006102b80004037300b4
:1022ac008583730026079800370798004482200026
:1022bc0014427800a1a82800044078001cfe0700f6
:1022cc0044822000144278002e019000be01900040
:1022dc00044078002bfe0700448220001442780052
:1022ec0061a928000440780011fe070044822000f8
:1022fc00144278005e019000ee01900004407800da
:10230c0020fe0700448220001442780081aa280095
:10231c000440780006fe07002e039000be039000d8
:10232c005e029000ee029000840f5300858f5b00dc
:10233c00090032004482200014427800a1aa28002f
:10234c0004407800fafd07002e709000b9040700d5
:10235c0014c0b300810437001e4290000442e9000f
:10236c0014479800ee4a900074c4b30084cf520016
:10237c00a8013a006e024700d1ad28000400780095
:10238c0051fc070000027800e00f52009a003a005e
:10239c008f0037003e4290000482fb006522b9009a
:1023ac000402780004024700e44a900084c5b3009c
:1023bc0084cf520015003a006e0347003e42900055
:1023cc000482fb006522b900040278000402430079
:1023dc0042c0b30011c0b30004007800670d0700c1
:1023ec000002be000400be00e5f907000002be00ba
:1023fc0094518800a551880014c0b3008442780021
:10240c00f1a32000854878006e0037003e42900012
:10241c000482fb006522b900040278000402470024
:10242c00e44a9000a4c5b30084cf520015003a00d2
:10243c006e0347003e4290000482fb006522b90007
:10244c00040278000402430042c0b30011c0b30080
:10245c0004007800490d07000002be000400be0015
:10246c00c7f907000002be0044528800555288008c
:10247c0014c0b3008443780056a52000074b7800a5
:10248c00500037003e4290000482fb006522b900e8
:10249c000402780004024700e44a900034c5b300fb
:1024ac0084cf520012003a006e0347003e42900067
:1024bc000482fb006522b900040278000402430088
:1024cc0042c0b30011c0b300040078002b0d07000c
:1024dc000002be0004027800e452880014c0b3006d
:1024ec008442780031a620008548780035003700fa
:1024fc003e4290000482fb006522b9000402780081
:10250c0004024700e44a9000d4c4b30084cf5200c4
:10251c0012003a006e0347003e4290000482fb001a
:10252c006522b900040278000402430042c0b300e3
:10253c0011c0b30004007800100d07000002be00ab
:10254c00040278005453880014c0b300844378000c
:10255c0016a72000074b78001a0037003e42900067
:10256c000482fb006522b9000402780004024700d3
:10257c00e44a900034c4b30084cf520011003a00f6
:10258c006e0347003e4290000482fb006522b900b6
:10259c00040278000402430042c0b30011c0b3002f
:1025ac0004007800f50c07000002be00040278005d
:1025bc00c453880014c0b30084427800f1a72000f3
:1025cc00854878003e4290000442e8003447980069
:1025dc00be4290001e42900084cf52006dff390025
:1025ec00448220001442780001ae28000440780098
:1025fc004ffd0700d60337006e02470091af28004d
:10260c0004007800b0fb070000027800e00f5200d5
:10261c0060003a00be52900034c5b30084cf520023
:10262c002f003a006e0247006502420042c0b30020
:10263c0011c0b30004007800d00c07000002be00eb
:10264c00863e200006abb900060378006020b90076
:10265c00800378000703430084027800843e200046
:10266c00042ab80005034300860278000403be0068
:10267c00261f9800371f98008003eb00471f980017
:10268c008000eb00511f9800b4b7270025262000ce
:10269c006033b8002e189000be1890004e199000b0
:1026ac00de199000e3fa07000203be000002be0030
:1026bc000400be000601be00843e20000500200080
:1026cc006033b8007dfa07000203be000002be00b2
:1026dc000402be000400be00990e0700270037005c
:1026ec00be52900004c5b30084cf52001e003a00c5
:1026fc006e0247006502420042c0b30011c0b30035
:10270c00040078009d0c07000002be000404be000b
:10271c000005eb008005eb00b4b727002526200050
:10272c006033b8000800be000a01be00c1fa070001
:10273c000203be000002be000400be000601be0083
:10274c00843e2000050020006033b8005bfa0700cf
:10275c000203be000002be000402be000400be0064
:10276c00770e0700050037004482200014427800e1
:10277c00c1af280004407800edfc07004482200023
:10278c001442780011b1280004407800e8fc0700de
:10279c006f0337006e02470081b2280004007800f6
:1027ac0049fb070000027800e00f52006e003a006f
:1027bc00f687470076825700a5a220000a00090080
:1027cc00351a78006401b10047070700f6875700f7
:1027dc000002be007451880085518800f6874700be
:1027ec007682570006a420000a000900361a7800e9
:1027fc006401b1003c070700f68757000002be00d9
:10280c002452880035528800b0528000c15280009a
:10281c00d2528000e3528000f452800005538000b5
:10282c0016538000c90b07000002be000400be0056
:10283c00b5f807000002be0004027800d4528800ec
:10284c00205380003153800042538000535380004a
:10285c00645380007553800086538000bb0b0700c7
:10286c000002be000400be00a7f807000002be0074
:10287c00040278004453880090538000a1538000d8
:10288c00b2538000c3538000d4538000e5538000c2
:10289c00f6538000ad0b07000002be000400be0022
:1028ac0099f807000002be0004027800b4538800b7
:1028bc0004002000452b240094518800a551880069
:1028cc0004002000452b24004452880055528800f7
:1028dc000002eb00e45288000002eb005453880025
:1028ec006022b800b4518800c55188006022b8003d
:1028fc00d4518800e55188006022b80064528800e9
:10290c00755288006022b800845288009552880065
:10291c0014c0b30084407800f7a32000814b7800ea
:10292c0014c0b3000443780055a52000864a7800f3
:10293c0014c0b3008440780037a62000814b780087
:10294c0014c0b3000443780015a72000864a780011
:10295c004482200014427800c1b228000440780060
:10296c0073fc0700fa0237006e02470021b42800fe
:10297c0004007800d4fa070000027800e00f52003f
:10298c000b003a00448220001442780061b4280005
:10299c000440780066fc0700448220001442780052
:1029ac00d1b528000440780061fc0700e80237002c
:1029bc006e02470031b7280004007800c2fa070005
:1029cc0000027800e00f52000b003a004482200015
:1029dc001442780061b428000440780054fc0700cd
:1029ec004482200014427800d1b5280004407800bd
:1029fc004ffc0700d60237004482200014427800b6
:102a0c0071b728000440780049fc070014c0b300db
:102a1c00d2023700ee4a9000d4c4b30084cf5200e7
:102a2c00cb023a006e024700f1b82800040078008f
:102a3c00a5fa070000027800e00f52000e003a00e1
:102a4c008040eb0030c0b3008c0d070044822000a6
:102a5c001442780041b928000440780034fc070087
:102a6c00448220001442780011bb280004407800f6
:102a7c002ffc0700ffff37006e02470071bc2800d7
:102a8c000400780090fa070000027800e00f520072
:102a9c0006003a00448220001442780061b42800f9
:102aac000440780022fc0700a90237006e024700a0
:102abc00c1bc28000400780083fa070000027800eb
:102acc00e00f520091013a00860137003e4290001f
:102adc000482fb006522b90004027800040247005e
:102aec00e44a900084c5b30084cf52005f003a00e2
:102afc00f687470076825700a7a220000a0009003b
:102b0c00371a78006401b10077060700f687570082
:102b1c000002be0074518800855188004482200058
:102b2c001442780011bd28000440780000fc070016
:102b3c007451800085518000468220001643780035
:102b4c0021c0b3000401be00064078007dfc0700e4
:102b5c004482200014427800a1c0b30004407800e5
:102b6c00d3fb07003e4290000482fb006522b900b3
:102b7c00040278000402e80004024700e44a9000d2
:102b8c0024c5b30084cf520004003a0011c0b30036
:102b9c000040eb00c70507002f0037003e429000b5
:102bac000482fb006522b900040278000402e800ec
:102bbc0004024700e44a900044c4b30084cf52009e
:102bcc0004003a0021c0b3000040eb00b905070037
:102bdc00210037003e4290000482fb006522b900c0
:102bec00040278000402e80004024700e44a900062
:102bfc0014c5b30084cf520004003a0041c0b300a6
:102c0c000040eb00ab050700130037003e4290007c
:102c1c000482fb006522b900040278000402e8007b
:102c2c0004024700e44a9000d4c4b30084cf52009d
:102c3c0004003a0001c1b3000040eb009d05070001
:102c4c00050037004482200014427800c1bd2800e2
:102c5c0004407800b6fb070014c0b300844278002f
:102c6c00f1a32000854878001b0137003e429000fc
:102c7c000482fb006522b9000402780004024700bc
:102c8c00e44a9000a4c5b30084cf52005f003a0020
:102c9c00f68747007682570006a420000a00090038
:102cac00361a78006401b1000f060700f68757004a
:102cbc000002be0024528800355288004482200055
:102ccc001442780041bf28000440780098fb0700ac
:102cdc002452800035528000468220001643780032
:102cec0021c0b3000401be000640780015fc0700ab
:102cfc004482200014427800a1c0b3000440780044
:102d0c006bfb07003e4290000482fb006522b90079
:102d1c00040278000402e80004024700e44a900030
:102d2c0024c5b30084cf520004003a0011c0b30094
:102d3c0010c0b3005f0507002f0037003e42900023
:102d4c000482fb006522b900040278000402e8004a
:102d5c0004024700e44a900044c4b30084cf5200fc
:102d6c0004003a0021c0b30010c0b30051050700a5
:102d7c00210037003e4290000482fb006522b9001e
:102d8c00040278000402e80004024700e44a9000c0
:102d9c0014c5b30084cf520004003a0041c0b30004
:102dac0010c0b30043050700130037003e429000eb
:102dbc000482fb006522b900040278000402e800da
:102dcc0004024700e44a9000d4c4b30084cf5200fc
:102ddc0004003a0001c1b30010c0b3003505070070
:102dec00050037004482200014427800c1bd280041
:102dfc00044078004efb070014c0b30084407800f8
:102e0c0057a52000814b7800b30037003e4290005c
:102e1c000482fb006522b90004027800040247001a
:102e2c00e44a900034c5b30084cf520033003a001a
:102e3c003e4290000482fb006522b9000402780037
:102e4c000402e80004024700e44a900024c5b300e1
:102e5c0084cf520005003a0014c0b300044378003c
:102e6c0065a52000864a78009b0037003e42900002
:102e7c000482fb006522b900040278000402e80019
:102e8c0004024700e44a9000e4c4b30084cf52002b
:102e9c0005003a0034c0b3008440780067a52000d8
:102eac00814b78008c0037003e4290000482fb007e
:102ebc006522b900040278000402e800040247000d
:102ecc00e44a9000c4c4b30084cf520005003a0019
:102edc0064c0b3000443780065a52000864a7800de
:102eec007d0037004482200014427800c1bd2800c8
:102efc00044078000efb0700770037003e4290003c
:102f0c000482fb006522b900040278000402470029
:102f1c00e44a9000d4c4b30084cf520033003a008a
:102f2c003e4290000482fb006522b9000402780046
:102f3c000402e80004024700e44a900024c5b300f0
:102f4c0084cf520005003a0014c0b30084407800ce
:102f5c0047a62000814b78005f0037003e4290006e
:102f6c000482fb006522b900040278000402e80028
:102f7c0004024700e44a9000e4c4b30084cf52003a
:102f8c0005003a0034c0b3000443780045a6200085
:102f9c00864a7800500037003e4290000482fb00c5
:102fac006522b900040278000402e800040247001c
:102fbc00e44a9000c4c4b30084cf520005003a0028
:102fcc0064c0b3008440780047a62000814b780091
:102fdc00410037004482200014427800c1bd280013
:102fec0004407800d2fa07003b0037003e429000c4
:102ffc000482fb006522b900040278000402470039
:10300c00e44a900034c4b30084cf520032003a003a
:10301c003e4290000482fb006522b9000402780055
:10302c000402e80004024700e44a900024c5b300ff
:10303c0084cf520005003a0014c0b300044378005a
:10304c0025a72000864a7800230037003e429000d6
:10305c000482fb006522b900040278000402e80037
:10306c0004024700e44a9000e4c4b30084cf520049
:10307c0005003a0034c0b3008440780027a7200034
:10308c00814b7800140037003e4290000482fb0014
:10309c006522b900040278000402e800040247002b
:1030ac00e44a9000c4c4b30084cf520005003a0037
:1030bc0064c0b3000443780025a72000864a78003a
:1030cc00050037004482200014427800c1bd28005e
:1030dc000440780096fa07003e4290000442e80053
:1030ec0034479800be4290001e42900084cf52009c
:1030fc0076fe39004482200014427800f1bf28008b
:10310c00044078008afa0700110137006e0247006c
:10311c0011c2280004007800ebf8070000027800c8
:10312c00e00f52000b003a00448220001442780059
:10313c0061b42800044078007dfa07004482200026
:10314c001442780061c228000440780078fa070025
:10315c00ff0037006e024700f1c32800040078001e
:10316c00d9f8070000027800e00f52000b003a007b
:10317c00448220001442780061b428000440780096
:10318c006bfa0700448220001442780041c42800e6
:10319c000440780066fa0700ed0037006e02470025
:1031ac00f1c5280004007800c7f807000002780079
:1031bc00e00f52003a003a0044822000144278009a
:1031cc0011bd28000440780059fa070074518000a2
:1031dc0085518000468220001643780021c0b30040
:1031ec000401be0006407800d6fa07004482200095
:1031fc0014427800a1c0b300044078002cfa0700f8
:10320c00448220001442780041bf2800044078001a
:10321c0047fa070024528000355280004682200075
:10322c001643780021c0b3000401be0006407800ac
:10323c00c4fa07004482200014427800a1c0b300f5
:10324c00044078001afa07004482200014427800e7
:10325c0041c628000440780035fa0700d45280009b
:10326c00050020000400be0045f607000002be0069
:10327c00468220001643780021c0b3000401be0032
:10328c0006407800affa0700448220001442780010
:10329c00a1c0b3000440780005fa0700ac00370069
:1032ac006e02470031c728000400780086f807003a
:1032bc0000027800e00f52007a003a00f6874700cf
:1032cc0076825700a7a220000a000900371a78005e
:1032dc006401b10084040700f68757000002be00a9
:1032ec007451880085518800f68747007682570014
:1032fc0001a420000a000900311a78006401b10011
:10330c0079040700f68757000002be00245288009b
:10331c0035528800b0528000c1528000d2528000d9
:10332c00e3528000f4528000055380001653800055
:10333c00060907000002be000400be00f2f50700fb
:10334c000002be0004027800d45288002053800092
:10335c0031538000425380005353800064538000eb
:10336c007553800086538000f80807000002be00e9
:10337c000400be00e4f507000002be000402780061
:10338c004453880090538000a1538000b2538000b6
:10339c00c3538000d4538000e5538000f653800063
:1033ac00ea0807000002be000400be00d6f50700c4
:1033bc000002be0004027800b453880074518000ef
:1033cc008551800094518800a551880024528000ba
:1033dc00355280004452880055528800d4528000e7
:1033ec00e45288004453800054538800b453800046
:1033fc00c45388006022b800b4518800c5518800bd
:10340c006022b800d4518800e55188006022b800d1
:10341c0064528800755288006022b800845288007b
:10342c0095528800f4528000045388006453800045
:10343c0074538800d4538000e45388000042eb009e
:10344c0004437800e5a32000864a78000042eb0094
:10345c008440780047a52000814b78000042eb00a7
:10346c000443780025a62000864a78000042eb0031
:10347c008440780007a72000814b78000042eb00c5
:10348c0004437800e5a72000864a78004482200097
:10349c001442780081c7280004407800a4f9070082
:1034ac002b0037006e024700e1c8280004007800aa
:1034bc0005f8070000027800e00f52000b003a00fc
:1034cc00448220001442780061b428000440780043
:1034dc0097f90700448220001442780031c9280073
:1034ec000440780092f90700190037006e0247007b
:1034fc0001cb280004007800f3f7070000027800e5
:10350c00e00f52000b003a00448220001442780075
:10351c0061b428000440780085f90700448220003b
:10352c001442780051cb28000440780080f9070041
:10353c0007003700448220001442780001cd280097
:10354c00044078007af9070014c0b3000300370078
:10355c002e709000370007000042eb00044078000a
:10356c004f05be004f04be000080fa0000000600ac
:10357c000400fa001007980097c0a90074a220005c
:10358c0014427800ee4f520018003e000042eb004f
:10359c00044f78001000370074a220001442780009
:1035ac000483fb009e4278000582fb009e4378005a
:1035bc008782fb009e039000858243009542780031
:1035cc004533dd00040343007484200004024300ef
:1035dc00054a78001e4fe800148020001442780041
:1035ec009e4f5200ecff3e00050037004482200045
:1035fc001442780081ce2800044078004cf9070072
:10360c000042eb000443780015802000864a7800c5
:10361c0097c0a80074a22000144278000442e8006d
:10362c008442780077a22000854b78000080fa0055
:10363c00000006000400fa00204798002e4290007b
:10364c00044fe9001d0037000042eb0014479800be
:10365c00160037001e4278000483fb001e429000c7
:10366c000482fb009e4378008782fb008503e80000
:10367c009e4290008582fb00c53bdd0085834300a4
:10368c007584200085824300954278004533dd0027
:10369c00040343007484200004024300054a7800ac
:1036ac001e4290000442e800144798001e4290000d
:1036bc00ff4f5200e7ff36001e4fe80074a22000b7
:1036cc00144278009e42780084cf5200deff39000d
:1036dc0074a22000144278000442e90004437800ec
:1036ec0075a22000864a78000080fa0000000600cf
:1036fc000a00fa00404798003207980043079800e8
:10370c006022b800048fbe004e429000e04f520081
:10371c003d003a006022b800048fbe003200370032
:10372c00c422a8006451800004007800010020002d
:10373c000200200003002000b4b72700252620003b
:10374c006033b800bbf607000203be000002be00e7
:10375c000400be000601be0004242400f500200075
:10376c006033b80055f607000203be000002be002d
:10377c000402be000400be00710a0700c422a900a6
:10378c006451800004007800010020000200200039
:10379c0003002000b4b72700252620006033b800b2
:1037ac00a4f607000203be000002be000400be0027
:1037bc000601be0004242400f50020006033b8008c
:1037cc003ef607000203be000002be000402be006b
:1037dc000400be005a0a0700140020000500200057
:1037ec001e0f42005e974a003e029000ce029000ef
:1037fc001e03be00840f5300858f5b00c8ff390089
:10380c000042eb00410037004e429000e14f520065
:10381c003d003a006022b800048fbe003200370031
:10382c00c462a8001452800004007800010020003b
:10383c000200200003002000b4b72700252620003a
:10384c006033b8007bf607000203be000002be0026
:10385c000400be000601be0004242400f500200074
:10386c006033b80015f607000203be000002be006c
:10387c000402be000400be00310a0700c462a900a5
:10388c001452800004007800010020000200200087
:10389c0003002000b4b72700252620006033b800b1
:1038ac0064f607000203be000002be000400be0066
:1038bc000601be0004242400f50020006033b8008b
:1038cc00fef507000203be000002be000402be00ab
:1038dc000400be001a0a0700140020000500200096
:1038ec001e0f42005e974a003e029000ce029000ee
:1038fc001e03be00840f5300858f5b00c8ff390088
:10390c000042eb000100370014c0b3000440780003
:10391c000080fa00000006000a00fa00881f7800f8
:10392c0040479800320798004307980018c0b3002e
:10393c006011b8003e009000ce0090006ef40700bd
:10394c0000027800e00f5200010035000044eb004b
:10395c00e04f5400080032003e029000ce0290006e
:10396c0005f0a2000400be0067f407000002be00d0
:10397c00048fbe00050037003e009000ce00900082
:10398c0061f407000002be00048fbe001e00be00e2
:10399c007bf407000002be006266260063fe230073
:1039ac000400be0012f407000002be000400be00ba
:1039bc0055f407000002be00048fbe009e0290006a
:1039cc004406200004aab900040378001e02780003
:1039dc006022b90004027800040343009e027800c0
:1039ec0044062000042ab800050343008602780030
:1039fc00048fbe00048fbe004e429000e04f520078
:103a0c0030003a00a4a22000144278000482fb008b
:103a1c00050020001e03900004b3b90006037800d3
:103a2c009e03780005b8b9008003780007034300b3
:103a3c009e037800040278000722b80005034300b7
:103a4c0086027800048fbe00048fbe0018c0b3003d
:103a5c006011b8003e009000ce00900028f40700e2
:103a6c0000027800e00f520001003c000044eb0023
:103a7c00e04f54000400320011c0b3000040eb00d2
:103a8c00e30107004100370018c0b3006011b80013
:103a9c003e009000ce00900017f407000002780062
:103aac00e00f5200010035000044eb00e04f5400e1
:103abc00360032008040eb000040eb00d4010700e0
:103acc00320037004e429000e14f52002f003a0076
:103adc0004a42000144278000482fb00050020009e
:103aec001e03900004b3b900060378009e0378000f
:103afc0005b8b90080037800070343009e037800e3
:103b0c00040278000722b8000503430086027800ff
:103b1c00048fbe00048fbe0018c0b3006011b80043
:103b2c003e009000ce009000f5f3070000027800f4
:103b3c00e00f520001003c000044eb00e04f540049
:103b4c000400320011c0b30010c0b300b001070074
:103b5c000e00370018c0b3006011b8003e00900092
:103b6c00ce009000e4f3070000027800e00f520052
:103b7c00010035000044eb00e04f5400030032001c
:103b8c008040eb0010c0b300a10107001e01be0075
:103b9c004e409000d6fe07000042eb000440780037
:103bac004f0478000080fa00000006000a00fa00ba
:103bbc00881f780040479800320798004307980008
:103bcc0018c0b3006011b8003e009000ce00900009
:103bdc00c9f3070000027800e00f52000100350025
:103bec000044eb00e04f5400080032003e0290000d
:103bfc00ce02900005f0a2000400be00c2f3070044
:103c0c000002be00048fbe00050037003e0090008d
:103c1c00ce009000bcf307000002be00048fbe0073
:103c2c001e00be00d6f307000002be00626626002e
:103c3c0063fe23000400be006df307000002be000b
:103c4c000400be00b0f307000002be00048fbe00eb
:103c5c009e0290004406200004aab90004037800d8
:103c6c001e0278006022b9000402780004034300ad
:103c7c009e02780044062000042ab8000503430085
:103c8c0086027800048fbe00048fbe004e42900066
:103c9c00e04f520036003a00a4a2200014427800f3
:103cac000482fb00050020001e03900004b3b90041
:103cbc00060378009e03780005b8b90080037800ed
:103ccc00070343009e037800040278000722b80023
:103cdc000503430086027800048fbe00048fbe00eb
:103cec0018c0b3006011b8003e009000ce009000e8
:103cfc0083f3070000027800e00f520001003c0043
:103d0c000044eb00e04f54000400320011c0b3003b
:103d1c000040eb003e0107000e00370018c0b30056
:103d2c006011b8003e009000ce00900072f30700c6
:103d3c0000027800e00f5200010035000044eb0057
:103d4c00e04f5400030032008040eb000040eb00d9
:103d5c002f01070080c4290001002000f80807008b
:103d6c001e02be00d4518800e5518800380037008f
:103d7c004e429000e14f520035003a0004a420005e
:103d8c00144278000482fb00050020001e03900002
:103d9c0004b3b900060378009e03780005b8b90097
:103dac0080037800070343009e0378000402780028
:103dbc000722b8000503430086027800048fbe007a
:103dcc00048fbe0018c0b3006011b8003e00900014
:103ddc00ce0090004af3070000027800e00f52007a
:103dec0001003c000044eb00e04f540004003200a2
:103dfc0011c0b30010c0b300050107000e0037005e
:103e0c0018c0b3006011b8003e009000ce009000c6
:103e1c0039f3070000027800e00f52000100350072
:103e2c000044eb00e04f5400030032008040eb00f4
:103e3c0010c0b300f600070080c429000100200068
:103e4c00bf0807001e02be008452880095528800ed
:103e5c004f0478000080fa00000006000000fa0011
:103e6c00b6518000c7518000d4518000e5518000cc
:103e7c00840f5300858f5b005500320014c0b300d3
:103e8c0004437800e5a32000864a7800c422a800e9
:103e9c006451800004007800010020000200200022
:103eac0003002000b4b72700252620006033b8009b
:103ebc00e0f407000203be000002be000400be00d6
:103ecc000601be0004242400f50020006033b80075
:103edc007af407000203be000002be000402be001a
:103eec000400be0096080700c422a90044a52000c7
:103efc0014427800e14f520004003a0000fa20000e
:103f0c00010020008e080700160037006451800065
:103f1c0004007800010020000200200003002000b3
:103f2c00b4b72700252620006033b800c1f4070081
:103f3c000203be000002be000400be000601be006b
:103f4c0004242400f50020006033b8005bf4070063
:103f5c000203be000002be000402be000400be004c
:103f6c0077080700b6518000c7518000d4518000fb
:103f7c00e5518000840f5300858f5b0006003100f3
:103f8c00b4518000c551800061024200e0824a00b9
:103f9c00b4518800c5518800b6518000c7518000cb
:103fac00d4518000e5518000840f5300858f5b0055
:103fbc0020003600b4518000c551800061025200cf
:103fcc00e0825a00b4518800c551880019003700ae
:103fdc00e4a3200014427800e14f520015003a008f
:103fec00f687470076825700a5a220000a00090038
:103ffc00351a78006401b1003b010700f6875700c1
:10400c000002be0074518800855188000042eb000c
:10401c0084427800e6a32000054b78006022b800ab
:10402c00b4518800c55188006022b800d451880072
:10403c00e5518800665280007752800084528000df
:10404c0095528000840f5300858f5b005500320021
:10405c0014c0b3008442780046a52000054b7800bc
:10406c00c462a800145280000400780001002000f3
:10407c000200200003002000b4b7270025262000f2
:10408c006033b8006bf407000203be000002be00f0
:10409c000400be000601be0004242400f50020002c
:1040ac006033b80005f407000203be000002be0036
:1040bc000402be000400be0021080700c462a9006f
:1040cc00e4a3200014427800e14f520004003a00af
:1040dc0000fa200001002000190807001600370024
:1040ec00145280000400780001002000020020001f
:1040fc0003002000b4b72700252620006033b80049
:10410c004cf407000203be000002be000400be0017
:10411c000601be0004242400f50020006033b80022
:10412c00e6f307000203be000002be000402be005c
:10413c000400be000208070066528000775280001f
:10414c008452800095528000840f5300858f5b0051
:10415c0006003100645280007552800061024200fa
:10416c00e0824a00645288007552880066528000d2
:10417c00775280008452800095528000840f530047
:10418c00858f5b00200036006452800075528000e1
:10419c0061025200e0825a00645288007552880015
:1041ac001900370044a5200014427800e14f52005a
:1041bc0015003a00f68747007682570006a42000c7
:1041cc000a000900361a78006401b100c600070025
:1041dc00f68757000002be00245288003552880032
:1041ec000042eb000443780045a52000864a780085
:1041fc006022b80064528800755288006022b800b2
:10420c0084528800955288000080fa000000060055
:10421c000200fa00004f7800114798001e42780007
:10422c00e04f52000e003a001e429000e14f520047
:10423c0002003a00c402a90001003700c402a80021
:10424c002416800004427800614262000443780026
:10425c00b5a22000864a78000042eb00120037001d
:10426c001e427800e14f52000e003a001e429000b0
:10427c00e14f520002003a00c442a900010037008d
:10428c00c442a800241680004222de006142620073
:10429c000443780015a42000864a78000042eb0005
:1042ac000100370014c0b300044078000080fa000d
:1042bc00000006000200fa00004f78001147980039
:1042cc001e429000e14f52001f003a001e4278003f
:1042dc00e04f52000d003a0014c0b30004437800c4
:1042ec00a5a22000864a7800e415200064518800bd
:1042fc008040eb0070c0b300600707008040eb000b
:10430c0060c0b3005d0707000f0037001e42780045
:10431c00e14f52000c003a0014c0b3000443780083
:10432c0005a42000864a7800e41520001452880069
:10433c008040eb0050c0b300500707008040eb00fa
:10434c0040c0b3004d0707001e429000e24f5200e0
:10435c001f003a001e427800e04f52000d003a0058
:10436c0024c0b30004437800a5a22000864a78003c
:10437c00840c20006451880011c0b30070c0b300dd
:10438c003e0707008040eb0060c0b3003b0707000e
:10439c000f0037001e427800e14f52000c003a002b
:1043ac0024c0b3000443780005a42000864a78009a
:1043bc00840c20001452880011c0b30050c0b3000c
:1043cc002e0707008040eb0040c0b3002b0707000e
:1043dc001e429000e44f52001f003a001e4278002b
:1043ec00e04f52000d003a0044c0b3000443780083
:1043fc00a5a22000864a7800840c20006451880015
:10440c008040eb0070c0b3001c07070011c0b30064
:10441c0060c0b300190707000f0037001e42780078
:10442c00e14f52000c003a0044c0b3000443780042
:10443c0005a42000864a7800840c200014528800c1
:10444c008040eb0050c0b3000c07070011c0b30054
:10445c0040c0b300090707001e429000f04f520005
:10446c001f003a001e427800e04f52000d003a0047
:10447c0004c1b30004437800a5a22000864a78004a
:10448c00840c20006451880011c0b30070c0b300cc
:10449c00fa06070011c0b30060c0b300f7060700ae
:1044ac000f0037001e427800e14f52000c003a001a
:1044bc0004c1b3000443780005a42000864a7800a8
:1044cc00840c20001452880011c0b30050c0b300fb
:1044dc00ea06070011c0b30040c0b300e7060700ae
:1044ec000080fa00000006000400fa000eba9700e3
:1044fc009eba97000400be00a1f107000002be00a6
:10450c006266260063fe23000400be00f1f1070082
:10451c000002be00048fbe0002002000832c240089
:10452c001e00be0032f107000002be00048fbe0068
:10453c004ee297000482fb00cfa2de000400be0016
:10454c008cf107000002be000401be001e00be007c
:10455c0027f107000002be00048fbe005ee2970048
:10456c00e14f520008003a004eb29700deb29700bd
:10457c001e01be000400be00bff007000002be001a
:10458c00048fbe000a0037005ee29700e04f520035
:10459c0007003a004eb29700deb297000401be004d
:1045ac001e00be00b5f007000002be00048fbe0066
:1045bc001e02be000400be000080fa0000000600cf
:1045cc000000fa00453a800004fc2f0004826200cf
:1045dc00443a8800143a80000480a1000490a100a1
:1045ec0004a0a100143a88004207a80000000000b3
:1045fc00143a800061026200e00f5200fcff3a00a6
:10460c0064092000343a8800243a80000460a10038
:10461c000470a100243a8800253a800004fe2f0083
:10462c00048262005400b300243a8800243a8000cb
:10463c0004c0a10004d0a10004e0a100243a880029
:10464c00143a80000480a0000490a10004a0a100f2
:10465c00143a88004207a80000000000143a8000b9
:10466c0061026200e00f5200fcff3a000000000003
:10467c00153a80000402200004826200e00f520010
:10468c00fbff32000080fa00000006000000fa0078
:10469c000042eb000443780005802000864a780035
:1046ac0014c0b3000443780045822000864a780089
:1046bc002535800004fe2f00048262000410a00047
:1046cc00243588003536800004fe2f0004826200f9
:1046dc003400b300343688003535800004fe2f00da
:1046ec00048262003400b300343588002536800023
:1046fc0004fe2f00048262005400b30024368800ac
:10470c0021e2a90022a2a9002362a90023c2a900c8
:10471c00540520004411880023a2a90023e2a9001b
:10472c0022c2a90022e2a9002002a90004118000e3
:10473c000410a1000420a100041188002062a8002c
:10474c002082a90020a2a90020c2a90020e2a90071
:10475c00041180000480a1000490a10004118800c1
:10476c002162a9002182a90021a2a90021e2a800ae
:10477c002342a80031e2a90032a2a9003362a900a9
:10478c0054052000c411880033c2a90033a2a9002b
:10479c0033e2a90032c2a90032e2a9003002a9001a
:1047ac00841180000410a1000420a1008411880051
:1047bc003062a8003082a90030a2a90030c2a90042
:1047cc0030e2a900841180000480a1000490a100b3
:1047dc00841188003162a9003182a90031a2a9009c
:1047ec0031e2a8003342a8000080fa000000060065
:1047fc000000fa0005e1a9000421a90004c1a900e8
:10480c00240880000440a1000450a0002408880063
:10481c000002eb000408880014272000140888000c
:10482c008460a9009460a8006022b8002454880019
:10483c003554880005e1a8000080fa00000006004d
:10484c000000fa00c1e1a800c1a1a800040e80007c
:10485c000440a1000450a1000460a1000470a10058
:10486c00040e8800040e80000420a0000430a00078
:10487c00040e8800040e80000400a1000410a100a6
:10488c00040e8800047d2000240e8800c901a800b5
:10489c00c921a800c941a800c881a900c801a80065
:1048ac00c8a1a900c821a800c8c1a900c841a80076
:1048bc00c1e5a800c1a5a800042e80000440a100f9
:1048cc000450a1000460a1000470a100042e880013
:1048dc00042e80000420a0000430a000042e8800c8
:1048ec00047d2000242e8800042e80000400a100ea
:1048fc000410a100042e8800c905a800c885a900d1
:10490c00c805a8000002eb00b40e88000002eb0002
:10491c00c40e88000002eb00d40e88000002eb00ed
:10492c00b42e88000080fa00000006000000fa0097
:10493c0007e2a8000762a9000742a9000682a900a5
:10494c000662a9000642a9000602a9000622a800d8
:10495c000722a8000080fa00000006000000fa0000
:10496c0083e0a9008200a9000002eb002404880067
:10497c000002eb00340488000002eb0044048800c1
:10498c000002eb00540488000002eb006404880071
:10499c002405800004c0a10004d0a10004e0a00004
:1049ac0024058800240580000480a1000490a10047
:1049bc0004a0a10024058800240580000440a10067
:1049cc000450a1000460a100240588002405800087
:1049dc000400a1000410a1000420a10024058800fb
:1049ec003405800004c0a10004d0a10004e0a100a3
:1049fc0034058800340580000480a1000490a100d7
:104a0c0004a0a10034058800340580000440a100f6
:104a1c000450a1000460a100340588003405800016
:104a2c000400a1000410a1000420a100340588009a
:104a3c00540580000400a1000410a1000420a10072
:104a4c00540588004405800004c0a00004d0a000d8
:104a5c0004e0a00044058800440580000480a10007
:104a6c000490a10004a0a100440588004405800026
:104a7c000440a1000450a1000460a100440588007a
:104a8c00440580000400a1000410a1000420a10032
:104a9c0044058800540580000480a1000490a10006
:104aac0004a0a10054058800540580000440a10016
:104abc000450a1000460a100540588005405800036
:104acc000400a1000410a1000420a10054058800da
:104adc006405800004c0a10004d0a10004e0a10082
:104aec0064058800640580000440a1000450a10006
:104afc000460a10064058800640580000400a10026
:104b0c000410a1000420a100640588007405800035
:104b1c0004c0a10004d0a10004e0a1007405880029
:104b2c00740580000480a1000490a10004a0a100e1
:104b3c0074058800740580000400a1000410a10015
:104b4c000420a100740588008405800004c0a00026
:104b5c0004d0a10004e0a000840588008405800036
:104b6c000480a1000490a10004a0a1008405880089
:104b7c00840580000440a1000450a1000460a10041
:104b8c0084058800840580000400a1000410a100a5
:104b9c000420a100840588009405800004c0a100b5
:104bac0004d0a10004e0a1009405880094058000c5
:104bbc000480a0000490a00004a0a000940588002c
:104bcc00940580000440a1000450a1000460a100e1
:104bdc0094058800940580000400a1000410a10035
:104bec000420a10094058800a405800004c0a10045
:104bfc0004d0a10004e0a100a4058800a405800055
:104c0c000480a1000490a10004a0a100a4058800c8
:104c1c00a40580000440a1000450a1000460a10080
:104c2c00a4058800a40580000400a1000410a100c4
:104c3c000420a100a4058800b40580000400a10094
:104c4c000410a1000420a100b4058800d405800044
:104c5c000480a1000490a10004a0a100d405880048
:104c6c00d40580000440a1000450a1000460a10000
:104c7c00d4058800040680000440a1000450a10063
:104c8c000460a100040688001406800004c0a10082
:104c9c0004d0a10004e0a1001406880014068000d2
:104cac000480a1000490a10004a0a10014068800b7
:104cbc00140680000440a1000450a1000460a1006f
:104ccc0014068800240680000480a1000490a10032
:104cdc0004a0a10024068800240680000440a10042
:104cec000450a1000460a100240688002406800062
:104cfc0004c0a10004d0a10004e0a1002406880097
:104d0c00340680000480a1000490a10004a0a1003e
:104d1c0034068800340680000440a1000450a10031
:104d2c000460a10034068800340680000400a10051
:104d3c000410a1000420a100340688004406800061
:104d4c000480a1000490a10004a0a10044068800e6
:104d5c00440680000440a1000450a1000460a1009e
:104d6c004406880095c0a90095a0a9009580a900cb
:104d7c009560a8009540a9009520a9009500a90070
:104d8c0094e0a90094c0a90094a0a9009480a90063
:104d9c009460a8009440a9009420a9009400a90054
:104dac0097e0a90097c0a80097a0a9009780a90038
:104dbc009760a9009740a9009720a9009700a90027
:104dcc0096e0a90096c0a9009680a9009660a9005b
:104ddc009620a9009600a90099c0a90099a0a90045
:104dec009880a9009860a9009840a9009820a90073
:104dfc009800a9009be0a9009bc0a9009ba0a9005a
:104e0c009b20a9009d40a9009d20a9009cc0a90041
:104e1c009ca0a9009c80a9009c60a9009c40a900b2
:104e2c009c20a9000080fa00000006000000fa0097
:104e3c00c002a9006040a9006840a900c022a900d6
:104e4c006060a9006860a900c042a9006060a90068
:104e5c006860a900c062a90063a0a9006ba0a900aa
:104e6c00c082a9006000a9006800a900c802a900be
:104e7c006080a9006880a900c822a90060a0a900d0
:104e8c0068a0a900c842a80060c0a90068c0a8001a
:104e9c00c862a80060e0a90068e0a800c882a90068
:104eac006020a9006820a900c8a2a9006360a9001d
:104ebc006b60a900c8c2a9006300a9006b00a9001f
:104ecc00c8e2a80062e0a9006ae0a800c902a80034
:104edc0062c0a9006ac0a800c922a90062a0a900ea
:104eec006aa0a900c942a8006200a9006a00a80033
:104efc00c962a90061e0a90069e0a900c982a80003
:104f0c0061c0a90069c0a800c9a2a90061a0a9003c
:104f1c0069a0a900c9c2a9006180a9006980a90083
:104f2c00c9e2a9006160a9006960a900c402a900d6
:104f3c00c422a900c462a900c482a900cc02a900a1
:104f4c00cc22a900cc42a900cc62a900cc82a90039
:104f5c00cca2a900ccc2a900cce2a900cd02a90028
:104f6c00cd22a900cd42a900cd62a900cd82a90015
:104f7c00cda2a900cdc2a900cde2a90021e3a900d0
:104f8c002c03a8002c23a8002c43a8002c63a800f9
:104f9c002c83a8002ca3a8000080fa0000000600b7
:104fac000000fa0004002000452b240074518800f6
:104fbc00855188007451800085518000945188007f
:104fcc00a55188006022b800d4518800e5518800b2
:104fdc006022b800b4518800c55188000042eb0033
:104fec0004437800e5a32000864a78000042eb00d9
:104ffc0004437800f5a32000864a780011c0b30062
:10500c000040eb00abfc070004002000452b240003
:10501c00245288003552880024528000355280007a
:10502c0044528800555288006022b800845288008f
:10503c00955288006022b80064528800755288002e
:10504c000042eb000443780045a52000864a780016
:10505c000042eb000443780055a52000864a7800f6
:10506c0011c0b30010c0b30092fc070011c0b30014
:10507c0030c0b300010407000002eb00d4528800da
:10508c000002eb00e452880064b82000f45288005f
:10509c0064b820000453880014c0b30004437800a3
:1050ac0065a52000864a78000042eb000443780096
:1050bc0025a62000864a78000042eb0004437800c5
:1050cc0035a62000864a78000002eb004453880085
:1050dc000002eb005453880034c0b3000443780042
:1050ec0045a62000864a78000042eb000443780075
:1050fc0005a72000864a78000042eb0004437800a4
:10510c0015a72000864a780024052000b453880097
:10511c0024052000c453880034c0b3000443780035
:10512c0025a72000864a78000042eb000443780053
:10513c00e5a72000864a780014c0b3000443780029
:10514c00f5a72000864a78000080fa0000000600cf
:10515c000600fa0020479800210798000002eb0097
:10516c00040f78002e029000e00f520004003d0066
:10517c002e0290000402ea00040f780002003700af
:10518c002e029000040f78002e429000e04f520047
:10519c0003003a001e027800b40e8800110037009c
:1051ac002e429000e14f520003003a001e0278009c
:1051bc00c40e88000b0037002e429000e24f5200c4
:1051cc0003003a001e027800d40e88000500370058
:1051dc002e429000e34f520002003a001e0278006b
:1051ec00b42e88000080fa00000006000800fa00c7
:1051fc002047980022079800330798000002eb0024
:10520c00040f78002e429000e04f52001b003a0031
:10521c00c4002000040f78002e019000be01900005
:10522c00000020004133240093ed07000002be0073
:10523c0024079800350798001e027800050020000e
:10524c000400be004eee07000002be002e019000ce
:10525c00be0190000400be009eee07000002be00de
:10526c000400be0028ee07000002be00040f780008
:10527c00e42e20001e0f4200180037002e42900032
:10528c00e14f5200150032002e429000e34f5200c5
:10529c0012003a00b4002000040f78001e027800bf
:1052ac00050020000400be0035ee07000002be0021
:1052bc002e019000be0190000400be0085ee070098
:1052cc000002be000400be000fee07000002be008c
:1052dc00040f7800443820001e0f42001e02780094
:1052ec00840078002e40900099ff07000080fa009f
:1052fc00000006000800fa002047980022079800da
:10530c00330798000002eb00040f78002e42900047
:10531c00e04f520021003a00c4002000040f780036
:10532c002e019000be0190000000200041332400ab
:10533c0051ed07000002be002407980035079800c5
:10534c001e027800050020000400be000cee0700d1
:10535c000002be002e019000be0190000400be00b1
:10536c005cee07000002be000400be00e6ed070084
:10537c000002be00040f7800e42e20001e0f420035
:10538c001e02780004538800245480003554800099
:10539c0004027800c45288001e0037002e42900090
:1053ac00e14f52001b0032002e429000e34f52009e
:1053bc0018003a00b4002000040f78001e02780098
:1053cc00050020000400be00eded07000002be0049
:1053dc002e019000be0190000400be003dee0700bf
:1053ec000002be000400be00c7ed07000002be00b4
:1053fc00040f7800443820001e0f42001e02780073
:10540c00e453880024548000355480000402780052
:10541c00a45388000080fa00000006000000fa0087
:10542c00f552800004538000848f52002900320012
:10543c0014c0b3000443780025a62000864a7800e7
:10544c00f4528000840078000040eb0040ff07001d
:10545c002654800037548000c45280000500200080
:10546c000403530085835b0064a52000144278007c
:10547c000482fb0005002000840f5300858f5b0025
:10548c002a00360024548000355480000402780031
:10549c00c4528800f552800004538000848f52005f
:1054ac0004003100f45280000402e800f452880039
:1054bc001e003700f552800004538000848f520088
:1054cc001a003600f45280000402e900f4528800fd
:1054dc001600370024a6200014427800e14f520039
:1054ec0012003a000042eb000443780025a620008d
:1054fc00864a7800b0528000c1528000d25280009f
:10550c00e3528000f4528000055380001653800053
:10551c008e0007000002be000400be007aed0700fa
:10552c000002be0004027800d4528800655380004b
:10553c0074538000848f52002900320014c0b300d1
:10554c000443780005a72000864a78006453800045
:10555c008400780010c0b300fdfe070026548000c4
:10556c00375480003453800005002000040353009e
:10557c0085835b0044a62000144278000482fb0063
:10558c0005002000840f5300858f5b002a00360035
:10559c002454800035548000040278003453880071
:1055ac006553800074538000848f520004003100d6
:1055bc00645380000402e800645388001e00370026
:1055cc006553800074538000848f52001a0036009b
:1055dc00645380000402e90064538800160037000d
:1055ec0004a7200014427800e14f520012003a0048
:1055fc000042eb000443780005a72000864a78009f
:10560c00205380003153800042538000535380005c
:10561c006453800075538000865380004b00070054
:10562c000002be000400be0037ed07000002be0001
:10563c000402780044538800d5538000e453800062
:10564c00848f52002900320014c0b3000443780048
:10565c00e5a72000864a7800d453800084007800a7
:10566c0030c0b300bafe07002654800037548000c7
:10567c00a4538000050020000403530085835b00c5
:10568c0024a72000144278000482fb0005002000af
:10569c00840f5300858f5b002a0036002454800051
:1056ac003554800004027800a4538800d553800040
:1056bc00e4538000848f520004003100d4538000e6
:1056cc000402e800d45388001e003700d553800034
:1056dc00e4538000848f52001a003600d4538000ab
:1056ec000402e900d453880016003700e4a7200018
:1056fc0014427800e14f520012003a000042eb00d5
:10570c0004437800e5a72000864a78009053800077
:10571c00a1538000b2538000c3538000d453800047
:10572c00e5538000f6538000080007000002be001d
:10573c000400be00f4ec07000002be000402780076
:10574c00b45388000080fa00000006001200fa0032
:10575c0020079800310798004207980053079800db
:10576c006407980075079800060f98006e02900069
:10577c00e42eb000050020000400be0000ed070080
:10578c000002be00048fbe00020020004333240040
:10579c001e00be004fed07000002be00048fbe00cd
:1057ac0002002800935024001e00be0090ec07005d
:1057bc000002be00048fbe001e02be000400be002c
:1057cc000080fa00000006000200fa00000f7800ca
:1057dc001e027800040078000080fa000000060029
:1057ec000800fa0060479800714798006e429000dc
:1057fc000482fb0005002000048fbe007e42900056
:10580c00e04f52001f0032000042eb00444798006a
:10581c00140037006e4290000482fb00050020004b
:10582c001e03900004b3b900060378009e037800b1
:10583c0005b8b90080037800070343009e03780085
:10584c00040278000722b8000503430086027800a2
:10585c00048fbe00048fbe004e4290000442e8004c
:10586c00444798004e4290008482fb007e42900098
:10587c000482fb000402e900848f5200e5ff35002e
:10588c00030037001400200005002000048fbe0028
:10589c001e02be000400be000080fa0000000600dc
:1058ac000a00fa00889fbe0030079800014f98004c
:1058bc00124f98006022b800048fbe000e4a900070
:1058cc0044479800240037004e4290000482fb00ad
:1058dc00be02900004824200144278000404fb00d3
:1058ec00cfc4de009e4a90004e42900004c252008b
:1058fc000442e90084407800a0c0b300b8ff070060
:10590c000002be0004cbb9000603780008a8b90059
:10591c0080037800070343008803780004027800b2
:10592c00043ab80005034300860278000400be0068
:10593c0093ec07000002be000401be001e00be0076
:10594c00ceeb07000002be00048fbe004e4290005a
:10595c000442e80044479800ce4290001e4a900052
:10596c0084cf5200d8ff39001e02be000400be00d6
:10597c004f04be000080fa00000006000a00fa0086
:10598c00889fbe0030079800014f9800124f980076
:10599c006022b800048fbe000e4a90004447980065
:1059ac00240037004e4290000482fb00be0290009f
:1059bc0004824200144278000404fb00cfc4de00d1
:1059cc009e4a90004e42900004c252000442e900ec
:1059dc0084407800a0c0b30081ff07000002be0025
:1059ec0004cbb9000603780008a8b900800378003e
:1059fc00070343008803780004027800043ab800d7
:105a0c0005034300860278000400be005cec07002e
:105a1c000002be000401be001e00be0097eb070092
:105a2c000002be00048fbe004e4290000442e8000b
:105a3c0044479800ce4290001e4a900084cf5200fa
:105a4c00d8ff39001e00be002fec07000002be007c
:105a5c000400be004f04be000080fa0000000600e7
:105a6c000600fa00200798000002eb00040f7800f3
:105a7c000002eb0014079800130037002e02900070
:105a8c001e02420014427800ea4f52000d00320010
:105a9c002e0290001e02420014427800e84f520081
:105aac00080032002e0290001e02420014427800c0
