:020000040000fa
:080000000002040000000000f2
:020000040000fa
:04000800e40300000d
:020000040000fa
:04000c00e403000009
:020000040000fa
:04001000e403000005
:020000040000fa
:04001400e403000001
:020000040000fa
:04001800e4030000fd
:020000040000fa
:04001c00e4030000f9
:020000040000fa
:04002000e4030000f5
:020000040000fa
:04002400e4030000f1
:020000040000fa
:04002800e4030000ed
:020000040000fa
:04002c00e4030000e9
:020000040000fa
:04003000e4030000e5
:020000040000fa
:04003400a80200001e
:020000040000fa
:04003800e4030000dd
:020000040000fa
:04003c00e4030000d9
:020000040000fa
:04004000e4030000d5
:020000040000fa
:04004400c0020000f6
:020000040000fa
:04004800c8020000ea
:020000040000fa
:04004c00e4030000c9
:020000040000fa
:04005000e4030000c5
:020000040000fa
:040054005e03000047
:020000040000fa
:04005800d4030000cd
:020000040000fa
:04005c00e4030000b9
:020000040000fa
:04006000e4030000b5
:020000040000fa
:04006400e4030000b1
:020000040000fa
:04006800e4030000ad
:020000040000fa
:04006c00e4030000a9
:020000040000fa
:04007000e4030000a5
:020000040000fa
:04007400e4030000a1
:020000040000fa
:04007800e40300009d
:020000040000fa
:04007c00e403000099
:020000040000fa
:04008000e403000095
:020000040000fa
:04008400e403000091
:020000040000fa
:04008800e40300008d
:020000040000fa
:04008c00e403000089
:020000040000fa
:04009000e403000085
:020000040000fa
:04009400d002000096
:020000040000fa
:04009800560300000b
:020000040000fa
:04009c00e403000079
:020000040000fa
:0400a00066030000f3
:020000040000fa
:0400a400dc03000079
:020000040000fa
:0400a800e40300006d
:020000040000fa
:0400ac00e403000069
:020000040000fa
:0400b000e403000065
:020000040000fa
:0400b400e403000061
:020000040000fa
:0400b800e40300005d
:020000040000fa
:0400bc00e403000059
:020000040000fa
:0400c000e403000055
:020000040000fa
:0400c400e403000051
:020000040000fa
:0400c800e40300004d
:020000040000fa
:0400cc00e403000049
:020000040000fa
:0400d000e403000045
:020000040000fa
:0400d400e403000041
:020000040000fa
:0400d800e40300003d
:020000040000fa
:0400dc00e403000039
:020000040000fa
:0400e000e403000035
:020000040000fa
:0400e400e403000031
:020000040000fa
:0400e800e40300002d
:020000040000fa
:0400ec00e403000029
:020000040000fa
:0400f000e403000025
:020000040000fa
:0400f400e403000021
:020000040000fa
:0400f800e40300001d
:020000040000fa
:0400fc00e403000019
:020000040000fa
:04010000e403000014
:020000040000fa
:04010400e403000010
:020000040000fa
:04010800e40300000c
:020000040000fa
:04010c00e403000008
:020000040000fa
:04011000e403000004
:020000040000fa
:04011400e403000000
:020000040000fa
:04011800e4030000fc
:020000040000fa
:04011c00e4030000f8
:020000040000fa
:04012000e4030000f4
:020000040000fa
:04012400e4030000f0
:020000040000fa
:04012800e4030000ec
:020000040000fa
:04012c00e4030000e8
:020000040000fa
:04013000e4030000e4
:020000040000fa
:04013400e4030000e0
:020000040000fa
:04013800e4030000dc
:020000040000fa
:04013c00e4030000d8
:020000040000fa
:04014000e4030000d4
:020000040000fa
:04014400e4030000d0
:020000040000fa
:04014800e4030000cc
:020000040000fa
:04014c00e4030000c8
:020000040000fa
:04015000e4030000c4
:020000040000fa
:04015400e4030000c0
:020000040000fa
:04015800e4030000bc
:020000040000fa
:04015c00e4030000b8
:020000040000fa
:04016000e4030000b4
:020000040000fa
:04016400e4030000b0
:020000040000fa
:04020800e40300000b
:020000040000fa
:04020c00e403000007
:020000040000fa
:04021000e403000003
:020000040000fa
:04021400e4030000ff
:020000040000fa
:04021800e4030000fb
:020000040000fa
:04021c00e4030000f7
:020000040000fa
:04022000e4030000f3
:020000040000fa
:04022400e4030000ef
:020000040000fa
:04022800e4030000eb
:020000040000fa
:04022c00e4030000e7
:020000040000fa
:04023000e4030000e3
:020000040000fa
:04023400e4030000df
:020000040000fa
:04023800e4030000db
:020000040000fa
:04023c00e4030000d7
:020000040000fa
:04024000e4030000d3
:020000040000fa
:04024400e4030000cf
:020000040000fa
:04024800e4030000cb
:020000040000fa
:04024c00e4030000c7
:020000040000fa
:04025000e4030000c3
:020000040000fa
:04025400e4030000bf
:020000040000fa
:04025800e4030000bb
:020000040000fa
:04025c00e4030000b7
:020000040000fa
:04026000e4030000b3
:020000040000fa
:04026400e4030000af
:020000040000fa
:04026800e4030000ab
:020000040000fa
:04026c00e4030000a7
:020000040000fa
:04027000e4030000a3
:020000040000fa
:04027400e40300009f
:020000040000fa
:04027800e40300009b
:020000040000fa
:04027c00e403000097
:020000040000fa
:04028000e403000093
:020000040000fa
:04028400e40300008f
:020000040000fa
:04028800e40300008b
:020000040000fa
:04028c00e403000087
:020000040000fa
:04029000e403000083
:020000040000fa
:04029400e40300007f
:020000040000fa
:04029800e40300007b
:020000040000fa
:04029c00e403000077
:020000040000fa
:0402a000e403000073
:020000040000fa
:0402a400e40300006f
:020000040000fa
:0402a800e40300006b
:020000040000fa
:0402ac00e403000067
:020000040000fa
:0402b000e403000063
:020000040000fa
:0402b400e40300005f
:020000040000fa
:0402b800e40300005b
:020000040000fa
:0402bc00e403000057
:020000040000fa
:0402c000e403000053
:020000040000fa
:0402c400e40300004f
:020000040000fa
:0402c800e40300004b
:020000040000fa
:0402cc00e403000047
:020000040000fa
:0402d000e403000043
:020000040000fa
:0402d400e40300003f
:020000040000fa
:0402d800e40300003b
:020000040000fa
:0402dc00e403000037
:020000040000fa
:0402e000e403000033
:020000040000fa
:0402e400e40300002f
:020000040000fa
:0402e800e40300002b
:020000040000fa
:0402ec00e403000027
:020000040000fa
:0402f000e403000023
:020000040000fa
:0402f400e40300001f
:020000040000fa
:0402f800e40300001b
:020000040000fa
:0402fc00e403000017
:020000040000fa
:04030000e403000012
:020000040000fa
:04030400e40300000e
:020000040000fa
:04030800e40300000a
:020000040000fa
:04030c00e403000006
:020000040000fa
:04031000e403000002
:020000040000fa
:04031400e4030000fe
:020000040000fa
:04031800e4030000fa
:020000040000fa
:04031c00e4030000f6
:020000040000fa
:04032000e4030000f2
:020000040000fa
:04032400e4030000ee
:020000040000fa
:04032800e4030000ea
:020000040000fa
:04032c00e4030000e6
:020000040000fa
:04033000e4030000e2
:020000040000fa
:04033400e4030000de
:020000040000fa
:04033800e4030000da
:020000040000fa
:04033c00e4030000d6
:020000040000fa
:04034000e4030000d2
:020000040000fa
:04034400e4030000ce
:020000040000fa
:04034800e4030000ca
:020000040000fa
:04034c00e4030000c6
:020000040000fa
:04035000e4030000c2
:020000040000fa
:04035400e4030000be
:020000040000fa
:04035800e4030000ba
:020000040000fa
:04035c00e4030000b6
:020000040000fa
:04036000e4030000b2
:020000040000fa
:04036400e4030000ae
:020000040000fa
:100400002f8a20000e7f24000e01880000000000cb
:10041000000020000000e000020032000001200087
:10042000200288000c00070040fa21000100200093
:1004300011000700000020000000e0000200320070
:1004400000000200000000005a1e02000000000030
:100450000040da000000fe004440a90040082000ef
:100460000000e0000300320000002000a00188002e
:100470004440a80000000600910188008000780038
:100480000000eb0015003700e280400032a0b4000d
:100490009101ba00e280400032a0b4009102ba009b
:1004a000e280400032a0b4000002eb00472bde00e7
:1004b000f507b200602ce10004003a000059eb009f
:1004c0008301e900fdff3e00040037006128e100e0
:1004d000010032000082eb000b00070011c3ba00dc
:1004e0001101ba000604e00003003a000200e00037
:1004f000e5ff3a0000000600f607b200960188000a
:1005000082007800f5ff37003159ba008301e90015
:100510000c0032002159ba008301e90008003200c2
:100520000400e00003003a00e280400032a0b40082
:10053000f5ff370011d9ba008301e900faff3a004c
:100540008100e800e180400032a0b4000000060015
:10055000809fbe000000fa008460a9002040800057
:100560003140800061004000e08048002040880069
:10057000314088000080fa004f00be0000400600b5
:100580000000fa0084e0a9000080fa0000400600a4
:100590000000fa008500a9000080fa000040060073
:1005a000809fbe000000fa008760a9000040800024
:1005b0001140800061004000e08048000040880059
:1005c00011408800c1428000d0428000808f5000de
:1005d0000700320000862000104078000004e00090
:1005e00003003a001086200011c0b30001487800d3
:1005f0003143800040438000808f5000070032006c
:10060000e0862000104078000004e00003003a007b
:10061000f086200011c0b30001487800a14380009b
:10062000b0438000808f500007003200c087200058
:10063000104078000004e00003003a00d08720005a
:1006400011c0b300014878001144800020448000ac
:10065000808f500007003200e088200010407800b2
:100660000004e00003003a00f088200011c0b3004d
:1006700001487800a1448000b0448000808f500081
:1006800007003200008a2000104078000004e000db
:1006900003003a00108a200011c0b300014878001e
:1006a0000080fa004f00be00004006000000fa0083
:1006b0008780a9000080fa00004006000000fa00d0
:1006c0008560a9000080fa00004006003600f800ae
:1006d000809fbe00829fbe00849fbe00869fbe009a
:1006e0000000fa0087c0a900d080200010407800e8
:1006f0000080fb00b111800081407800c2802000a2
:100700000000410021409800d080200090407800f7
:1007100000c2b30080cf50000800360000832000e4
:100720001040780081a828004c090700d0802000e4
:100730008040eb000148780014003700d080200092
:10074000104078000080fb000080e800c18020009d
:1007500061407800ea4f500007003a00d080200046
:100760008040eb0001487800e082200011c0b30017
:100770000148780005003700d08020001040780044
:100780008040e800d0802000014878000080fa0016
:100790004f03be004f02be004f01be004f00be001f
:1007a0003600f900004006000000fa008580a9002c
:1007b0000080fa00004006000000fa0087e0a9006f
:1007c0000080fa00004006000040da000000fe0051
:1007d00003f0a200889fbe008a9fbe008c1f780095
:1007e000fa000700010133006450e1004f003200bd
:1007f0006420e1005200320003826c0007003b00dd
:100800000905d0000306d000820f54000c065d00dd
:1008100002003900020032008901780003067800e6
:100820008582550004003d000003fd008103fd00aa
:100830008502ea008b854200840f720002003b00b3
:1008400060001000e08018006011b8000005eb00a7
:100850007a28e1000a00390006007800c75ddd0053
:10086000f707b200878075002d0037008281710084
:100870000a017800610560008180d1000080d3000a
:100880008502e900f9ff3b00060440008784480028
:1008900002003b0060041400e0841c000988a300ef
:1008a000070032008a817100828171006101640059
:1008b0008904d1000884d3008b05e80017003700b5
:1008c0000978a30013003a000b00e0001300340085
:1008d0008b05e9000804440089844c000a44740034
:1008e0000978a3000d003a000b00e0000700340077
:1008f0008b05e9000804440089844c0001003a009b
:100900000b0020000978a300f7ff32000001eb0084
:1009100002003700828171000a0178007000070030
:100920000cf0a70001f0a000b90037006420e1003e
:1009300002003a00838f6c00b90033000801be004a
:100940000200be00b2003700889fbe008a9fbe0032
:100950008c1f78009d000700a400330003866c0004
:100960006450e1002e0032006420e10033003200c8
:100970006150e1002f0032006120e10031003200bf
:1009800085855500eb07b000090020000804200011
:10099000050037000804440089844c000a00310037
:1009a0000603430087834b000001530081815b00f5
:1009b000f8ff33000203be000800a0000804440052
:1009c00089844c00f6ff3900c639dd0083017300cd
:1009d00001003200130020008904d1000884d300f4
:1009e0000998a300050032000800a7000300a0003a
:1009f0008904d1000884d3008b05e8008904d10064
:100a00000884d3000001eb000281d200340007000b
:100a100001f0a1000cf0a70001f0a0007c0037005d
:100a20006420e1007e0032000801be000200be002a
:100a3000f7ff37006120e100790032006000b80064
:100a4000f3ff37000000200001f82700f0ff370017
:100a500014002000e4013700f4ff2f00e20137000a
:100a60000001be00440007000470a70003f0a100cd
:100a700003f8a30013003a006509b100100032002a
:100a8000090035006928e100020035000100280056
:100a90000000050000004000818048008502e90058
:100aa000fcff3a0000000600f88f42000500350008
:100ab0008100d1000080d3008502e800fcff3a00ed
:100ac000000006008000eb00000005004f89de00fa
:100ad00082017800df0137006011b800ed013700b6
:100ae00081002000618055000b003d000b002000bc
:100af00061fe2f000100e1001d00340082817100c1
:100b0000610164008904d1000884d3000000e8007a
:100b1000faff3a00710020006100640003007000d9
:100b2000020060000900320061044400e0844c00cf
:100b30000988a500050032008b05e8006808e1007f
:100b400002003a008904d1000884d300f20f20008b
:100b50000258e10005003d00c75ddd00f907b20065
:100b60008980750008007800000006000bf8270057
:100b70008b00780000000500c70ade00f107b20014
:100b8000f50fb20008003200e1cf4200020032004f
:100b90000170a00024000500810f700001003200e8
:100ba0000408050044000500810f700002003a00af
:100bb000140005008502e9000000400081c04800e3
:100bc000fcff3b000170a000240005000004be00f3
:100bd000e9ff07000003be000405be000200be00de
:100be000e5ff0700844f7500000006000200be000c
:100bf0006450e100050036006420e1000200360088
:100c00000968a30001003a000800be000160a000ce
:100c10004f0678004f05be004f04be0000000600de
:100c2000f0ff2f00f1ff2700f9ff3700889fbe007b
:100c30008a9fbe008c1f7800e4ff0700ebff3300a3
:100c400003866c006450e100240032006420e1005f
:100c5000270032006150e100220032006120e100f3
:100c6000210032008b854200eb07b1000134b8004f
:100c7000003ab8000804420089844a00013ab800ea
:100c80000030b8008880400009014a0004003300a9
:100c90000000400081804800020149008b05e90006
:100ca000c909dd008301700001003200130020003b
:100cb000c814de004814dd004709de001200b2004f
:100cc000c808de000884700085ff070001f0a1005d
:100cd0000cf0a70001f0a000cdff37006120e1007b
:100ce000cfff32000801be000200be00f7ff370050
:100cf0006150e100fcff3a00c9ff37006022b800f4
:100d0000060220000000d0008180d2000482d200c0
:100d10008582d2000000a0000202520083825a00a5
:100d2000030031000202420083824a000000a10059
:100d30000603e900f3ff3a0000000600889fbe00aa
:100d40008a9fbe0030044200b0844a0030054b0048
:100d500090854b006000b1000898be000a90be006c
:100d60000440e10005c8e10006d0e10007d8e10039
:100d700002003100680040001008e8004f05be0086
:100d80004f04be0000000600889fbe008a9fbe0080
:100d90003004be002005be000418540005985c0015
:100da00006185d0007985d00110020000440e10076
:100db00005c8e10006d0e10007d8e10001003900d4
:100dc0008000eb00108810004f05be004f04be00ed
:100dd000000006001200fa00889fbe008a9fbe0035
:100de0008c9fbe00e0b79f00f1b79f0082bf9f00bd
:100df00093bf9f000605be000404be000000eb0088
:100e0000d0b79f00c0b79f00b0b79f00a0b79f00aa
:100e100090b79f000006eb005fb19700cfb097003e
:100e2000820141003fb097000200e00004003d0055
:100e3000370007007e805700c0ff0700030037001f
:100e4000330007007e805700cfff0700dfb6970012
:100e50000d00e0000c0035006fb29700ffb2970064
:100e60000fbb97009fbb97001000200001002000df
:100e70006011b800000272008182720002037300e8
:100e8000838373001b0007000c06e80001042000a8
:100e9000810f5600e0ff3a000d00e00004003d0025
:100ea0000802be000a03be007e805700a3ff0700b1
:100eb0005fa897000000e00005003a001fb297000d
:100ec000afb297003fb39700cfb397000900070078
:100ed0006fb09700ffb097000fb997009fb99700c8
:100ee0004f06be004f05be004f04be000080fa0052
:100ef000000006000100070000000600a4b79f00e4
:100f0000b5b79f00c6b79f00d7b79f000000060087
:100f10004f09de0082817100b3b79f004f01de00f0
:100f20008180400082807000a1b79f008fb0970041
:100f30004f09de00000040000200700090b79f00e3
:100f40007fa897004f01de00818040008280700002
:100f500081b79f000d0007004f3ade0000004000ff
:100f600004007000f0af9f00080007000402420078
:100f700085824a0006034b0087834b00dfff070092
:100f80000802be000a03be00000006002fb2970050
:100f9000bfb297004fb39700dfb397000000060081
:100fa000881f780018002000881f780089ff07003c
:100fb0008f87e9004f04780000000600801feb00d7
:100fc00084ff07008f87e90000000600889fbe00ad
:100fd0008a9fbe00e00f5000e08f5800e00f5900dc
:100fe000e08f59000c003d006044b8006055b80027
:100ff0000000540081805c0002015d0083815d007f
:10100000180020001500070008003d001800070028
:101010000004eb00050037000004eb000f000700a0
:1010200002003d001200070018002000dcff07004e
:101030000800e000060032006022b8006033b8000b
:101040000000520081805a0002015b0083815b0036
:101050004f05be004f04be0000000600e00f520026
:10106000e08f5a00e00f5b00e08f5b00000006009d
:101070006044b8006055b8000402540085825c00ea
:1010800006035d0087835d0000000600889fbe00a8
:101090008a9fbe008c1f7800e00f5000e08f580040
:1010a000e00f5900e08f59000d003d006044b8008a
:1010b0006055b8000000540081805c0002015d00b2
:1010c00083815d001c0020000820e10009a8e100e8
:1010d0000ab0e1000bb8e1000d003d000800370048
:1010e0000006eb00e00f5200e08f5a00e00f5b00bb
:1010f000e08f5b0006003d006044b8006055b8001a
:101100000402540085825c0006035d0087835d0055
:10111000aaff07000c00e000060032006022b800c1
:101120006033b8000000520081805a0002015b0069
:1011300083815b004f0678004f05be004f04be0060
:1011400000000600889fbe008a9fbe008c1f7800aa
:101150000006eb00e00f5000e08f5800e00f590050
:10116000e08f590007003d006044b8006055b800aa
:101170000000540081805c0002015d0083815d00fd
:101180001c002000e00f5200e08f5a00e00f5b00cf
:10119000e08f5b0007003d006044b8006055b80078
:1011a0000402540085825c0006035d0087835d00b5
:1011b0000c00a200660007000c00e00006003200f0
:1011c0006022b8006033b8000000520081805a00ed
:1011d00002015b0083815b004f0678004f05be0073
:1011e0004f04be0000000600889fbe008a9fbe001c
:1011f000841f780075fe07004f007800110033004f
:10120000f0ff2f00838f6c0006003b000405650093
:101210000a00a7000800370009f0a600100020000f
:1012200008003700820f5400838f5c0003003900f0
:101230001000200001003e000000200009f0a7007f
:101240000000ea004f05be004f04be000000e000b1
:1012500000000600881f7800030478000300e00007
:1012600007003d0060001000e080180060011900d8
:10127000e081190002003b0001f02d00030037005f
:101280000400070008f0a70001f0a0004f04780058
:1012900000000600889fbe008a9fbe00008270008a
:1012a0000402710004827100260032000004be00b6
:1012b0000200be006011b8006b09200095022000fa
:1012c0000182cf000a0039000541b1000082cf0041
:1012d000070039000541b1000982cf000400390040
:1012e0000541b1000882cf00010039000541b1007d
:1012f00005425200120032000a003b008281710058
:10130000610164008100d1000080d3008984d30092
:101310000884d3008b05e8000442e800f7ff3a0098
:10132000070037000804440089844c00000048008e
:10133000818048008b05e9000442e900f9ff3a008a
:10134000e7fd07004f05be004f04be000000060089
:10135000889fbe008a9fbe008c9fbe000404b80018
:101360000506b8008904460060854e000606b800f0
:101370000a054600e0854e000706b8008b054600ca
:10138000040eb800890446000a854e00e0854d0031
:10139000050eb8000a0546008b854e00060eb80003
:1013a0008b0546000416b8000a0546008b854e00e2
:1013b0000516b8008b054600041eb8008b054600d4
:1013c0000800be000a01be004f06be004f05be0069
:1013d0004f04be0000000600020037000204e000d7
:1013e0000b00320081017800000278003041780063
:1013f000b14f5100f9ff3200100020001442780074
:10140000934f5200030031000080eb000000060003
:081410000000eb0000000600e3
:020000040000fa
:10141800473000000047000031000000436f000023
:101428006e730000696700006e65000020580000b8
:10143800203d000020000000436f00006e73000094
:10144800696700006e650000205a0000203d00001a
:1014580020000000436f00006e7300006967000001
:101468006e65000020530000415600004f580000f0
:10147800203d000020000000436f00006e73000054
:10148800696700006e650000204d000047390000c4
:1014980039360000203d000020000000436f0000a6
:1014a8006e730000696700006e650000204300004d
:1014b800414d000045520000412000003d20000041
:1014c80000470000340000004732000038000000e8
:1014d80047390000300000004739000031000000a3
:1014e8004d310000380000004465000062750000be
:1014f80074200000636f0000646500002050000045
:10150800494300000a0000004572000072650000af
:08151800757200000a000000da
:020000040000fa
:101520000a00fa00404798003207980043079800e5
:101530006000b800008fbe004e4090000004e00044
:101540002b003a006000b800008fbe00200037007a
:10155000c422a800004480008000eb006011b800a5
:1015600004a02500252620006033b800f5fe070002
:1015700004242400f50020006033b80093fe070027
:101580000000be00830a0700c422a90000448000b6
:101590008000eb006011b80004a025002526200083
:1015a0006033b800e7fe070004242400f5002000a3
:1015b0006033b80085fe07000000be00750a070012
:1015c00012002000030020001e0f41005e9749001a
:1015d0003e009000ce0090001e01be00800f510022
:1015e000818f5900daff39000040eb002f003700ef
:1015f0004e409000e14f50002b003a006000b800d0
:10160000008fbe0020003700c462a8009044800014
:101610008000eb006011b80004a025002526200002
:101620006033b800c7fe070004242400f500200042
:101630006033b80065fe07000000be00550a0700d1
:10164000c462a900904480008000eb006011b800e3
:1016500004a02500252620006033b800b9fe07004d
:1016600004242400f50020006033b80057fe070072
:101670000000be00470a07001200200003002000ff
:101680001e0f41005e9749003e009000ce00900082
:101690001e01be00800f5100818f5900daff390012
:1016a0000040eb000100370010c0b3000080fa00da
:1016b000000006000800fa00881f780040479800e4
:1016c000310798003e009000cf80de00fffc07004d
:1016d00018c0b3006011b800ddfc07000000e00096
:1016e000010035000044eb000804e0000500320072
:1016f0003e0090000000ea00cf80de00008fbe00b8
:10170000030037003e009000cf80de00008fbe0057
:101710001e00be00f0fc0700b2f32d00f3fd230015
:1017200089fc0700cefc0700008fbe009e009000e1
:10173000400620000088b900000178001e007800f3
:101740006000b90000007800000141009e007800b0
:10175000400620000008b800010141008200780026
:10176000008fbe00008fbe004e4090000004e000dd
:101770002f003a00e0872000104078000080fb0036
:101780008000eb001e0190000091b900020178007a
:101790009e017800019ab90084017800030141009c
:1017a0009e0178000018b800010141008200780015
:1017b000008fbe00008fbe003e009000cf80de0094
:1017c000c2fc070018c0b3006011b800a2fc0700fb
:1017d0000000e00001003c000044eb000804e000d1
:1017e0000400320011c0b3000040eb008401070088
:1017f000400037003e009000cf80de00b3fc0700c1
:1018000018c0b3006011b80091fc07000000e000b0
:10181000010035000044eb000804e0003500320010
:101820008040eb000040eb007501070031003700fd
:101830004e409000e14f50002e003a0000892000f9
:10184000104078000080fb008000eb001e0190003b
:101850000091b900020178009e017800019ab90058
:1018600084017800030141009e0178000018b8004f
:101870000101410082007800008fbe00008fbe0091
:101880003e009000cf80de0090fc070018c0b3003f
:101890006011b80070fc07000000e00001003c008f
:1018a0000044eb000804e0000400320011c0b30063
:1018b00010c0b300520107000e0037003e00900038
:1018c000cf80de0081fc070018c0b3006011b800b3
:1018d0005ffc07000000e000010035000044eb0061
:1018e0000804e000030032008040eb0010c0b300a9
:1018f000430107001e01be004e40900008ff070094
:101900000040eb004f0478000080fa000000060061
:101910000800fa00881f78004047980031079800b7
:101920003e009000cf80de0068fc070018c0b300c6
:101930006011b80046fc07000000e000010035001f
:101940000044eb000804e000050032003e00900077
:101950000000ea00cf80de00008fbe0003003700e9
:101960003e009000cf80de00008fbe001e00be0053
:1019700059fc0700b2f32d00f3fd2300f2fb070032
:1019800037fc0700008fbe009e009000400620003c
:101990000088b900000178001e0078006000b900de
:1019a00000007800000141009e0078004006200001
:1019b0000008b8000101410082007800008fbe00dd
:1019c000008fbe004e4090000004e00032003a005c
:1019d000e0872000104078000080fb008000eb00d2
:1019e0001e0190000091b900020178009e0178006c
:1019f000019ab90084017800030141009e0178003a
:101a00000018b8000101410082007800008fbe007c
:101a1000008fbe003e009000cf80de002bfc070050
:101a200018c0b3006011b8000bfc07000000e00014
:101a300001003c000044eb000804e0000400320018
:101a400011c0b3000040eb00ed0007000e003700ae
:101a50003e009000cf80de001cfc070018c0b300e1
:101a60006011b800fafb07000000e000010035003b
:101a70000044eb000804e000030032008040eb006b
:101a80000040eb00de0007001e01be00324488006b
:101a900043448800340037004e409000e14f50002e
:101aa00031003a0000892000104078000080fb00df
:101ab0008000eb001e0190000091b9000201780047
:101ac0009e017800019ab900840178000301410069
:101ad0009e0178000018b8000101410082007800e2
:101ae000008fbe00008fbe003e009000cf80de0061
:101af000f6fb070018c0b3006011b800d6fb070062
:101b00000000e00001003c000044eb000804e0009d
:101b10000400320011c0b30010c0b300b8000700c9
:101b20000e0037003e009000cf80de00e7fb07008c
:101b300018c0b3006011b800c5fb07000000e0004a
:101b4000010035000044eb000804e000030032000f
:101b50008040eb0010c0b300a90007001e01be00ca
:101b6000c2448800d34488004f0478000080fa0003
:101b7000000006000000fa00524480006344800028
:101b80003044800041448000800f5100818f590013
:101b90003a003200e088200011c0b300014878000c
:101ba000c422a800004480008000eb006011b8004f
:101bb00004a02500252620006033b80061fd070041
:101bc00004242400f50020006033b800fffc070067
:101bd0000000be00ef080700c422a90000448000f6
:101be0008000eb006011b80004a02500252620002d
:101bf0006033b80053fd070004242400f5002000e2
:101c00006033b800f1fc07000000be00e1080700e7
:101c1000524480006344800030448000414480008e
:101c2000800f5100818f5900060031005044800020
:101c30006144800061004000e0804800504488001a
:101c40006144880052448000634480003044800036
:101c500041448000800f5100818f590016003600ea
:101c6000504480006144800061005000e0805800d2
:101c700050448800614488000f003700e08820004d
:101c800010407800e14f50000b003a0020448000e3
:101c900010448800e08820008040eb000148780074
:101ca0006000b80050448800614488006000b800bb
:101cb0003044880041448800e2448000f3448000be
:101cc000c0448000d1448000800f5100818f5900b2
:101cd0003a003200008a200011c0b30001487800a9
:101ce000c462a800904480008000eb006011b8003e
:101cf00004a02500252620006033b80011fd070050
:101d000004242400f50020006033b800affc070075
:101d10000000be009f080700c462a9009044800034
:101d20008000eb006011b80004a0250025262000eb
:101d30006033b80003fd070004242400f5002000f0
:101d40006033b800a1fc07000000be009108070046
:101d5000e2448000f3448000c0448000d14480000d
:101d6000800f5100818f590006003100e04480004f
:101d7000f144800061004000e0804800e0448800b9
:101d8000f1448800e2448000f3448000c0448000b5
:101d9000d1448000800f5100818f59001600360019
:101da000e0448000f144800061005000e080580071
:101db000e0448800f14488000f003700008a2000ca
:101dc00010407800e14f50000b003a00b044800012
:101dd000a0448800008a20008040eb000148780081
:101de0006000b800e0448800f14488006000b8005a
:101df000c0448800d14488000080fa00000006003a
:101e00000200fa00004f7800114798001e40780049
:101e10000004e0000e003a001e409000e14f500028
:101e200002003a00c402a90001003700c402a80061
:101e300020168000004078006140600080407800fb
:101e4000f0872000014878000040eb0012003700c6
:101e50001e407800e14f50000e003a001e409000f6
:101e6000e14f500002003a00c442a90001003700cf
:101e7000c442a800201680004200de0061406000dd
:101e80008040780010892000014878000040eb0075
:101e90000100370010c0b3000080fa000000060007
:101ea0000200fa00004f7800114798001e40900091
:101eb000e14f50001d003a001e4078000004e00091
:101ec0000c003a00e087200011c0b3000148780000
:101ed000401f2000004488008040eb0070c0b30029
:101ee000000807008040eb0060c0b300fd0707005a
:101ef0000e0037001e407800e14f50000b003a0002
:101f00000089200011c0b30001487800401f200064
:101f1000904488008040eb0050c0b300f1070700f8
:101f20008040eb0040c0b300ee0707001e40900069
:101f3000e24f50001d003a001e4078000004e0000f
:101f40000c003a00e087200021c0b300014878006f
:101f5000e01520000044880011c0b30070c0b30039
:101f6000e00707008040eb0060c0b300dd0707001a
:101f70000e0037001e407800e14f50000b003a0081
:101f80000089200021c0b30001487800e01520003e
:101f90009044880011c0b30050c0b300d1070700bf
:101fa0008040eb0040c0b300ce0707001e40900009
:101fb000e44f50001d003a001e4078000004e0008d
:101fc0000c003a00e087200041c0b30001487800cf
:101fd000e0152000004488008040eb0070c0b30092
:101fe000c007070011c0b30060c0b300bd07070001
:101ff0000e0037001e407800e14f50000b003a0001
:102000000089200041c0b30001487800e01520009d
:10201000904488008040eb0050c0b300b107070037
:1020200011c0b30040c0b300ae0707001e409000cf
:10203000f04f50001d003a001e4078000004e00000
:102040000c003a00e087200001c1b300014878008d
:10205000e01520000044880011c0b30070c0b30038
:10206000a007070011c0b30060c0b3009d070700c0
:102070000e0037001e407800e14f50000b003a0080
:102080000089200001c1b30001487800e01520005c
:102090009044880011c0b30050c0b30091070700fe
:1020a00011c0b30040c0b3008e0707000080fa00e3
:1020b000000006000000fa00413a800000fc2f00fa
:1020c00000806000403a8800103a80000080a10043
:1020d0000090a10000a0a100103a88004207a800cb
:1020e00000000000103a8000610060000000e00085
:1020f000fcff3a0060092000303a8800203a800056
:102100000060a1000070a100203a8800213a800000
:1021100000fe2f00008060005000b300203a8800cd
:10212000203a800000c0a10000d0a10000e0a10082
:10213000203a8800103a80000080a0000090a100a2
:1021400000a0a100103a88004207a800000000008b
:10215000103a8000610060000000e000fcff3a00df
:1021600000000000113a80000002200000806000a2
:102170000000e000fbff32000080fa0000000600d3
:102180000000fa002135800000fe2f000080600072
:102190000010a000203588003136800000fe2f009e
:1021a000008060003000b300303688003135800098
:1021b00000fe2f00008060003000b3003035880042
:1021c0002136800000fe2f00008060005000b30028
:1021d0002036880021e2a90022a2a9002362a900da
:1021e00023c2a900500520004011880023a2a900a5
:1021f00023e2a90022c2a90022e2a9002002a9002c
:10220000001180000010a1000020a1000011880032
:102210002062a8002082a90020a2a90020c2a90053
:1022200020e2a900001180000080a1000090a10020
:10223000001188002162a9002182a90021a2a90021
:1022400021e2a8002342a80031e2a90032a2a9009d
:102250003362a90050052000c011880033c2a900d4
:1022600033a2a90033e2a90032c2a90032e2a900d8
:102270003002a900801180000010a1000020a10000
:10228000801188003062a8003082a90030a2a90025
:1022900030c2a90030e2a900801180000080a100b6
:1022a0000090a100801188003162a9003182a9004c
:1022b00031a2a90031e2a8003342a8000080fa0050
:1022c000000006000000fa0005e1a9000421a900b1
:1022d00004c1a900200880000040a1000050a00017
:1022e000200888000021ef00102720001008880037
:1022f0008460a9009460a8000428ef000628ef007d
:1023000005e1a8001fe1a9001e21a9001e61a90086
:102310001ec1a900f00880000040a0000050a000ed
:10232000f00888001421ef00a0612000d008880088
:102330008760a9009760a8000028ef000228ef003e
:102340001fe1a8000080fa00000006000000fa006b
:10235000c1e1a800c1a1a800000e80000040a100ba
:102360000050a1000060a1000070a100000e8800d4
:10237000000e80000020a0000030a000000e8800a9
:10238000000e80000000a1000010a100000e8800d7
:10239000007d2000200e8800c901a800c921a800e6
:1023a000c941a800c881a900c801a800c8a1a90006
:1023b000c821a800c8c1a900c841a800c1e5a8005b
:1023c000c1a5a800002e80000040a1000050a1007f
:1023d0000060a1000070a100002e8800002e800087
:1023e0000020a0000030a100002e880000e22400a0
:1023f000202e8800002e80000000a1000010a10007
:10240000002e8800c905a800c885a900c805a80035
:10241000d621ef00d821ef00da21ef00d625ef001a
:102420000080fa00000006000000fa0007e2a800a1
:102430000762a9000742a9000682a9000662a90056
:102440000642a9000602a9000622a8000722a80049
:102450000080fa00000006000000fa0083e0a900f6
:102460008200a9008420ef008620ef008820ef0082
:102470008a20ef008c20ef002005800000c0a10022
:1024800000d0a10000e0a000200588002005800009
:102490000080a1000090a10000a0a10020058800fc
:1024a000200580000040a1000050a1000060a100b4
:1024b00020058800200580000000a1000010a10078
:1024c0000020a100200588003005800000c0a10088
:1024d00000d0a10000e0a100300588003005800098
:1024e0000080a1000090a10000a0a100300588009c
:1024f000300580000040a1000050a1000060a10054
:1025000030058800300580000000a1000010a10007
:102510000020a10030058800500580000000a100c7
:102520000010a1000020a100500588004005800097
:1025300000c0a00000d0a00000e0a000400588007e
:10254000400580000080a1000090a10000a0a10033
:1025500040058800400580000040a1000050a10017
:102560000060a10040058800400580000000a10037
:102570000010a1000020a100400588005005800047
:102580000080a1000090a10000a0a10050058800db
:10259000500580000040a1000050a1000060a10093
:1025a00050058800500580000000a1000010a10027
:1025b0000020a100500588006005800000c0a10037
:1025c00000d0a10000e0a100600588006005800047
:1025d0000040a1000050a1000060a100600588003b
:1025e000600580000000a1000010a1000020a100f3
:1025f000600588007005800000c0a10000d0a10027
:1026000000e0a10070058800700580000080a10036
:102610000090a10000a0a100700588007005800056
:102620000000a1000010a1000020a100700588009a
:102630008005800000c0a00000d0a10000e0a00044
:1026400080058800800580000080a1000090a10026
:1026500000a0a10080058800800580000040a10046
:102660000050a1000060a100800588008005800066
:102670000000a1000010a1000020a100800588003a
:102680009005800000c0a10000d0a10000e0a100e2
:1026900090058800900580000080a0000090a000b8
:1026a00000a0a00090058800900580000040a100d7
:1026b0000050a1000060a1009005880090058000f6
:1026c0000000a1000010a1000020a10090058800da
:1026d000a005800000c0a10000d0a10000e0a10082
:1026e000a0058800a00580000080a1000090a10046
:1026f00000a0a100a0058800a00580000040a10066
:102700000050a1000060a100a0058800a005800085
:102710000000a1000010a1000020a100a005880079
:10272000b00580000000a1000010a1000020a10061
:10273000b0058800d00580000080a1000090a100b5
:1027400000a0a100d0058800d00580000040a100b5
:102750000050a1000060a100d005880000068000a4
:102760000040a1000050a1000060a1000006880008
:102770001006800000c0a10000d0a10000e0a10070
:1027800010068800100680000080a1000090a100c3
:1027900000a0a10010068800100680000040a100e3
:1027a0000050a1000060a1001006880020068000f3
:1027b0000080a1000090a10000a0a10020068800d8
:1027c000200680000040a1000050a1000060a10090
:1027d000200688002006800000c0a10000d0a100d3
:1027e00000e0a10020068800300680000080a100e3
:1027f0000090a10000a0a1003006880030068000f3
:102800000040a1000050a1000060a1003006880037
:10281000300680000000a1000010a1000020a100ef
:1028200030068800400680000080a1000090a100d2
:1028300000a0a10040068800400680000040a100e2
:102840000050a1000060a1004006880095c0a900ca
:1028500095a0a9009580a9009560a8009540a900c1
:102860009520a9009500a90094e0a90094c0a900b2
:1028700094a0a9009480a9009460a8009440a900a5
:102880009420a9009400a90097e0a90097c0a8008f
:1028900097a0a9009780a9009760a8009740a90079
:1028a0009720a9009700a90096e0a90096c0a9006a
:1028b0009680a9009660a9009620a9009600a9001c
:1028c00099c0a90099a0a9009880a9009860a900c2
:1028d0009840a9009820a9009800a9009be0a900b1
:1028e0009bc0a9009ba0a9009b20a9009d40a90016
:1028f0009d20a9009cc0a9009ca0a9009c80a900c3
:102900009c60a9009c40a9009c20a9000080fa00be
:10291000000006000000fa00c002a9006040a90003
:102920006840a900c022a9006060a9006860a900f1
:10293000c042a9006060a9006860a900c062a90047
:1029400063a0a9006ba0a900c082a9006000a90033
:102950006800a900c802a9006080a9006880a900d9
:10296000c822a90060a0a90068a0a900c842a800c8
:1029700060c0a90068c0a800c862a80060e0a90003
:1029800068e0a800c882a9006020a9006820a9000a
:10299000c8a2a9006360a9006b60a900c8c2a90011
:1029a0006300a9006b00a900c8e2a80062e0a900ca
:1029b0006ae0a800c902a80062c0a9006ac0a80015
:1029c000c922a90062a0a9006aa0a900c942a80062
:1029d0006200a9006a00a800c962a90061e0a9001c
:1029e00069e0a900c982a80061c0a90069c0a80067
:1029f000c9a2a90061a0a90069a0a900c9c2a90033
:102a00006180a9006980a900c9e2a9006160a900ec
:102a10006960a900c402a900c422a900c462a90077
:102a2000c482a900cc02a900cc22a900cc42a900f2
:102a3000cc62a900cc82a900cca2a900ccc2a9007a
:102a4000cce2a900cd02a900cd22a900cd42a90067
:102a5000cd62a900cd82a900cda2a900cdc2a90056
:102a6000cde2a90021e3a9002c03a8002c23a80093
:102a70002c43a8002c63a8002c83a8002ca3a8003a
:102a80000080fa00000006000000fa00d0022000da
:102a90001044880010448000204488006000b80082
:102aa00030448800414488006000b80050448800e9
:102ab00061448800e08820008040eb0001487800f5
:102ac000f08820008040eb000148780021c0b3006e
:102ad0000040eb00f2fc0700a0052000a0448800a5
:102ae000a0448000b04488006000b800c044880062
:102af000d14488006000b800e0448800f1448800b8
:102b0000008a20008040eb0001487800108a2000f5
:102b10008040eb000148780011c0b30010c0b30042
:102b2000dffc070011c0b30030c0b300ed040700a4
:102b30000000eb00c04288000000eb00d04288009b
:102b400060b82000e042880060b82000f0428800b1
:102b50004085200011c0b3000148780000862000a5
:102b60008040eb0001487800108620008040eb0098
:102b7000014878000000eb00304388000000eb00c3
:102b8000404388002086200011c0b300014878002f
:102b9000e08620008040eb0001487800f0862000ad
:102ba0008040eb00014878000000eb00a043880063
:102bb0000000eb00b04388000087200011c0b30084
:102bc00001487800c08720008040eb000148780071
:102bd000d08720008040eb00014878000080fa0098
:102be000000006000200fa00004f7800114798002c
:102bf0001e4078000004e0000a003a0000000000d7
:102c00001111800000202000008060000000e00022
:102c1000fbff3a001e4090000080fb00201188005e
:102c20000c0037001e407800e14f500009003a00c8
:102c30000000000091118000002020000080600052
:102c40000000e000fbff3a001e4090000080fb0007
:102c5000a01188000080fa00000006000400fa00bd
:102c6000004f7800110798001e0090001040780077
:102c7000804078001e407800daff07001e009000b8
:102c8000104078000080fb000000ea004f00de00ea
:102c9000004078009e0090008100e8001107980035
:102ca0000004e000f0ff3a000080fa000000060097
:102cb0001600fa0000579800120f9800230f980092
:102cc0000040eb00004f7800280037001e099000fc
:102cd000ae099000120798002307980006003700fd
:102ce0001e009000ae0090006a005000e080580086
:102cf00010079800210798001e019000ae01900077
:102d00009000200001002000800f5100818f5900a9
:102d1000f3ff3e001e80fb009e0090008140780083
:102d200000004700614098001e4078000081fb00d1
:102d30000080fb00000047006040900003c3b30028
:102d40008340400002004700614098001e4fe800a9
:102d50001e089000ae089000a20020000300200092
:102d6000e6f70700100f9800210f98001e09900049
:102d7000ae0990009000200001002000800f51005b
:102d8000818f5900d1ff3e001e089000ae089000d0
:102d90000003b0000180b000100f9800210f9800d0
:102da0001e80fb009e0890008140780000004700d4
:102db000614098001e4fe8006000b80010079800be
:102dc00021079800140037001e81fb008001eb00f2
:102dd0001e009000ae00900000005100818059005c
:102de00061005000e080580066014700000041008b
:102df00010407800804078000e50900079ff070066
:102e00001e009000ae00900061004000e08048008d
:102e100010079800210798001e81fb008001eb003d
:102e20001e009000ae009000800f5100818f59006d
:102e3000e5ff3e000080fa00000006000a00fa00ec
:102e4000204798002207980033079800014f980008
:102e50000040eb00004f78002e009000be00900074
:102e6000fff607000001be002e40900090ff070013
:102e7000e1c2b3002e4090005aff07002e009000e0
:102e8000be009000f6f6070013f707000001be0031
:102e90002e009000be0090004df60700200798001d
:102ea000310798001f0037000200200003122400a1
:102eb0002e009000be0090005cf7070020079800ed
:102ec000310798002e009000be009000e4f6070045
:102ed000104798001e4090000043b0001047980033
:102ee0009e4090002e4090003eff07001e4fe800dd
:102ef0002e009000be009000d9f607000040780038
:102f00000080fb00cf80de00f0f607000001be006d
:102f10002e009000be0090002df6070020079800bc
:102f2000310798000e4890009e40780080cf5000f6
:102f3000ddff39000080fa00000006002200fa00e0
:102f40000040eb00004f78000040eb001047980075
:102f50000040eb00204798000040eb00304798000d
:102f60004d0037001e80fb008080e800c0802000fc
:102f70000080400090407800f0c2b30080cf500045
:102f8000180034001e80fb008080e800c080200014
:102f9000008040009040780090c3b30080cf500084
:102fa00010003c001e4090000004e0000d003200c4
:102fb0001e81fb001e80fb008080e800c080200096
:102fc00000804000104078008040780000cdb300c1
:102fd00000c0400080407800e080200000004100f8
:102fe000014878001e4090000080fb00ae40900039
:102ff0008181fb009e80fb000181e800c1802000f0
:1030000081004100114178006500b900000078009e
:1030100000004700030040006400400002487800c0
:103020001e4fe8002e4090000040e8002047980026
:1030300001003700000000001e80fb008080e800d7
:10304000c0802000008040009040780000c2b300a3
:1030500080cf50000a0032001e80fb008080e80014
:10306000c08020000080400010407800ea4f5000ef
:10307000030032002e409000e44f5000b9ff3600ac
:103080001e4090000040e800104798001e4fe800e6
:103090000040eb00204798001e80fb008080e80085
:1030a000c08020000080400010407800ea4f5000af
:1030b000030032001e409000e54f5000ddff360057
:1030c00010c0b300304798000040eb002047980044
:1030d000ce40900070c4b30080cf5000ea003a00a8
:1030e00064004700c1a02800bbf807000000e00012
:1030f000bc003a0064004700f1a02800b6f80700c1
:103100000000e000bc003200b60037003e409000f6
:103110000080fb006500b900000078000000470057
:10312000c040900080c5b30080cf50001b003a0023
:10313000640147003e4090000080fb006500b9003c
:10314000000078000000410042c0b30011c0b3008d
:103150004702070000007800204488000083200018
:103160001040780021a12800bcfe07002044800008
:103170008000eb0002832000124278000001be00b4
:1031800004407800cafe0700008320001040780049
:10319000a1c0b30093fe07008f0037003e409000af
:1031a0000080fb006500b9000000780000004700c7
:1031b000c0409000a0c5b30080cf50001b003a0073
:1031c000640147003e4090000080fb006500b900ac
:1031d000000078000000410042c0b30011c0b300fd
:1031e0002302070000007800b0448800008320001c
:1031f0001040780001a2280098fe0700b04480002b
:103200008000eb0002832000124278000001be0023
:1032100004407800a6fe07000083200010407800dc
:10322000a1c0b3006ffe07006b0037003e40900066
:103230000080fb006500b900000078000000470036
:10324000c040900030c5b30080cf50001b003a0052
:10325000640147003e4090000080fb006500b9001b
:10326000000078000000410042c0b30011c0b3006c
:10327000ff01070000007800d04288000083200092
:1032800010407800e1a2280074fe0700d0428000c0
:103290008000eb0002832000124278000001be0093
:1032a0000440780082fe0700008320001040780070
:1032b000a1c0b3004bfe0700470037003e4090001e
:1032c0000080fb006500b9000000780000004700a6
:1032d000c0409000d0c4b30080cf50001b003a0023
:1032e000640147003e4090000080fb006500b9008b
:1032f000000078000000410042c0b30011c0b300dc
:10330000db010700000078004043880000832000b4
:103310001040780001a4280050fe070040438000c0
:103320008000eb0002832000124278000001be0002
:10333000044078005efe0700008320001040780003
:10334000a1c0b30027fe0700230037003e409000d5
:103350000080fb006500b900000078000000470015
:10336000c040900030c4b30080cf50001a003a0033
:10337000640147003e4090000080fb006500b900fa
:10338000000078000000410042c0b30011c0b3004b
:10339000b701070000007800b043880000832000d8
:1033a0001040780021a528002cfe0700b0438000c3
:1033b0008000eb0002832000124278000001be0072
:1033c000044078003afe0700008320001040780097
:1033d000a1c0b30003fe07003e4090000040e8009b
:1033e00030479800be4090001e40900080cf5000b3
:1033f00046ff3900240037006400470051a628002a
:10340000f5f707000000e00016003a0064004700ee
:1034100081a62800f0f707000000e00013003a0042
:1034200064004700c1a62800ebf707000000e00099
:1034300010003a006400470001a72800e6f70700e3
:103440000000e0000d003a006400470041a728009a
:10345000e1f707000000e0000a003a0010c0b300e6
:103460000a003700000000000700370000000000dd
:1034700005003700000000000300370000000000d6
:1034800001003700000000000040eb000080fa005f
:10349000000006000600fa00204798002107980067
:1034a0000000eb00000f78002e0090000000e0000c
:1034b00004003d002e0090000000ea00000f78009c
:1034c00002003700ae009000010f78002e409000ff
:1034d0000004e00003003a009e007800b10e88006e
:1034e000110037002e409000e14f500003003a00d9
:1034f0009e007800c10e88000b0037002e4090001f
:10350000e24f500003003a009e007800d10e880080
:10351000050037002e409000e34f500002003a00b3
:103520009e007800b12e88000080fa00000006009e
:103530000800fa00204798002207980033079800f7
:103540000000eb00000f78002e4090000004e00027
:1035500013003a00c0002000000f78002e019000f8
:10356000be019000000020004133240098f40700c1
:1035700020079800310798001e0078008000eb00bb
:1035800055f507002e019000be019000a7f5070039
:1035900033f50700000f7800e12e20001e8f400059
:1035a0001e007800800078002e409000b9ff0700d0
:1035b0000080fa00000006000800fa00204798008a
:1035c00022079800330798000000eb00000f7800f6
:1035d0002e4090000004e00019003a00c0002000d6
:1035e000000f78002e019000be0190000000200026
:1035f0004133240076f40700200798003107980033
:103600001e0078008000eb0033f507002e019000cb
:10361000be01900085f5070011f50700000f780046
:10362000e12e20001e8f40009e007800f1428800ad
:10363000204080003140800000007800b0428800c7
:103640000080fa00000006000000fa00e14280005d
:10365000f0428000808f5000280032000086200059
:1036600011c0b30001487800e0428000800078007b
:103670000040eb0087ff07002240800033408000bd
:10368000b04280008000eb000001510081815900b0
:1036900040852000104078000080fb008000eb0097
:1036a000800f5100818f59001d003600204080009e
:1036b0003140800000007800b0428800e142800084
:1036c000f0428000808f500004003100e042800012
:1036d0000000e800e042880011003700e14280006d
:1036e000f0428000808f50000d003600e0428000e4
:1036f0000000e900e0428800090037000086200051
:1037000010407800e14f500005003a00008620008c
:103710008040eb0001487800d0428000c042880021
:103720005143800060438000808f500028003200a9
:10373000e086200011c0b3000148780050438000ab
:103740008000780010c0b30052ff070022408000c4
:1037500033408000204380008000eb0000015100d6
:103760008181590020862000104078000080fb00f5
:103770008000eb00800f5100818f59001d00360042
:103780002040800031408000000078002043880005
:103790005143800060438000808f5000040031005e
:1037a000504380000000e8005043880011003700bb
:1037b0005143800060438000808f50000d00360030
:1037c000504380000000e9005043880009003700a2
:1037d000e086200010407800e14f500005003a00dc
:1037e000e08620008040eb000148780040438000e4
:1037f00030438800c1438000d0438000808f500058
:1038000028003200c087200011c0b30001487800b2
:10381000c04380008000780030c0b3001dff070067
:103820002240800033408000904380008000eb0005
:10383000000151008181590000872000104078006c
:103840000080fb008000eb00800f5100818f590049
:103850001d003600204080003140800000007800cc
:1038600090438800c1438000d0438000808f500087
:1038700004003100c04380000000e800c04388001d
:1038800011003700c1438000d0438000808f50007a
:103890000d003600c04380000000e900c0438800ee
:1038a00009003700c087200010407800e14f500029
:1038b00005003a00c08720008040eb0001487800f6
:1038c000b0438000a04388000080fa00000006009a
:1038d0000200fa00000f78001e0078000000e000ef
:1038e00002003d001e00ea00010037001e007800c3
:1038f0000080fa00000006000800fa006047980007
:10390000714798006e4090000080fb008000eb0043
:10391000008fbe007e4090000004e0001e003200d8
:103920000040eb0040479800130037006e409000c5
:103930000080fb008000eb001e0190000091b900a8
:10394000020178009e017800019ab9008401780094
:10395000030141009e0178000018b80001014100f8
:1039600082007800008fbe00008fbe004e409000a5
:103970000040e800404798004e4090008080fb00e7
:103980007e4090000080fb000000e900808f500026
:10399000e6ff350003003700100020000100200082
:1039a000008fbe001e00be000080fa00000006006e
:1039b0000a00fa00889fbe0030079800014f980067
:1039c000124f98006000b800008fbe008e48900033
:1039d000414798001e0037004e4090000080fb00d9
:1039e000be00900000804000104078000004fb0002
:1039f000cfc4de009e4890004e40900000c05000b2
:103a00000040e90080407800a0c0b300baff070082
:103a100000c9b90002017800088ab9008401780061
:103a2000030141000040b80001014100820078001c
:103a300029f407000001be001e00be0065f3070068
:103a4000008fbe004e4090000040e80040479800c4
:103a5000ce4090001e48900080cf5000deff39001d
:103a60001e00be004f04be000080fa0000000600e9
:103a70000a00fa00889fbe0030079800014f9800a6
:103a8000124f98006000b800008fbe008e48900072
:103a9000414798001e0037004e4090000080fb0018
:103aa000be00900000804000104078000004fb0041
:103ab000cfc4de009e4890004e40900000c05000f1
:103ac0000040e90080407800a0c0b3008aff0700f2
:103ad00000c9b90002017800088ab90084017800a1
:103ae000030141000040b80001014100820078005c
:103af000f9f307000001be001e00be0035f3070009
:103b0000008fbe004e4090000040e8004047980003
:103b1000ce4090001e48900080cf5000deff39005c
:103b20001e00be00cef307004f04be000080fa0066
:103b3000000006000600fa00200798000000eb00d5
:103b4000000f78000000eb0010079800130037000a
:103b50002e0090001e00400010407800ea4f5000f8
:103b60000d0032002e0090001e0040001040780032
:103b7000e84f5000080032002e0090001e00400068
:103b800010407800ec4f5000030032001e009000ff
:103b90000000e800100798001e0fe8002e009000bb
:103ba0001e004000104078000004e000e8ff3a00ea
:103bb0001e0090000080fa00000006000c00fa00d1
:103bc000204f98000040eb00004f78002e489000f6
:103bd0000000fb00cf80de0030079800410798000e
:103be0006000b80010079800210798000100370016
:103bf0001e4fe8002e4890008000fb001e80fb0056
:103c0000120020000010dd00808f5000f8ff3c0003
:103c1000210037002e4890008000fb001e80fb0032
:103c2000120020000010dd000001780011000900e2
:103c30008200d800cf80de0030079800410798004e
:103c40003e009000ce009000e00f5000e08f580042
:103c500010003200ae4890001e80fb0012002000d1
:103c60000010dd000040780000c05000204f980098
:103c70009e407800a0c0b3001fff07001e01900007
:103c8000ae019000020040008380480010079800b9
:103c9000210798001e4fe9002e4890000004e00024
:103ca000dcff3c001e009000ae0090000080fa0097
:103cb000000006000800fa0020079800310798006d
:103cc000fcf8070013fb07002df90700e2f90700d5
:103cd0009ef907007bf907006bfb0700002021001d
:103ce000a1072000ab0007000083200011c0b30033
:103cf00001487800008320001040780081a7280048
:103d0000d6fb0700e082200010407800e14f500011
:103d100004003a00e08220008040eb000148780077
:103d200086fc0700f088200010407800e14f50002a
:103d30000a003a00f08820008040eb00014878003b
:103d4000214480001044800000805000000f780063
:103d50009e0078000040eb00edf60700108a20007e
:103d600010407800e14f50000a003a00108a20000d
:103d70008040eb0001487800b1448000a0448000fe
:103d800000805000100798009e00900010c0b30003
:103d9000dff6070077f70700108620001040780054
:103da000e14f500009003a00108620008040eb00ef
:103db00001487800d04280008000eb0046f3070005
:103dc0000001be000040eb00fbfd0700f086200074
:103dd00010407800e14f500009003a00f0862000c2
:103de0008040eb0001487800404380008000eb00f9
:103df00039f307000001be0010c0b300eefd07005c
:103e0000d087200010407800e14f500009003a00b0
:103e1000d08720008040eb0001487800b04380004c
:103e20008000eb002cf307000001be0030c0b3009f
:103e3000e1fd070004fe0700b2ff37000400fa00ae
:103e4000204798002e419000818020008248780011
:103e5000c482a90080022000010020004d0007005c
:103e60000040eb00004f780015003700cdc2a900dc
:103e70002e4090008080fb001e80fb00120020007e
:103e80000010dd00808060001e80fb000088de00e6
:103e900000407800614060000080fb00610060002d
:103ea0004500dd0062168000f1fd2f0081006100f9
:103eb0000100700060168800cdc2a8001e4fe80007
:103ec0001e407800e74f5000e8ff3600c482a8008b
:103ed00080022000010020002e0007000080fa0070
:103ee000000006000400fa002047980031479800bf
:103ef0002e4090000080fb00110020000008dd0033
:103f00000040780000cfea0008c8bf001e406000f3
:103f100008e8b7003e4090008080fb002e409000f3
:103f20000080fb000008dd008040780008c8bf006a
:103f300000c0700008e8b70008c8bf00bfff070056
:083f40000080fa0000000600f9
:020000040000fa
:103f48000c08000048000000000000000008000005
:103f58000800000000000000540800002a000000cb
:103f68000000000008080000020000000000000037
:103f78007e08000024000000000000000a0800007d
:0c3f88000200000000000000e61f8000a6
:020000040000fa
:103f9400f03fb1000180b10006003500ee030900d6
:103fa40000000000403fb1000180b100fbff3d0074
:103fb4001000b000203fb00002003500008009006e
:083fc4000000000000000600ef
:020000040000fa
:043fcc0000000000f1
:020000040000fa
:0200000401f009
:04000000ffff0000fe
:020000040000fa
:0200000401f009
:04000400ffff0000fa
:020000040000fa
:0200000401f009
:04000800ffff0000f6
:020000040000fa
:0200000401f009
:04000c0001000000ef
:020000040000fa
:0200000401f009
:04001000a300000049
:020000040000fa
:0200000401f009
:040014005f00000089
:020000040000fa
:0200000401f009
:04001800770000006d
:020000040000fa
:0200000401f009
:04001c00dfff000002
:00000001FF
