:020000040000fa
:080000000002040000000000f2
:020000040000fa
:04000800dc02000016
:020000040000fa
:04000c00dc02000012
:020000040000fa
:04001000dc0200000e
:020000040000fa
:04001400dc0200000a
:020000040000fa
:04001800dc02000006
:020000040000fa
:04001c00dc02000002
:020000040000fa
:04002000dc020000fe
:020000040000fa
:04002400dc020000fa
:020000040000fa
:04002800dc020000f6
:020000040000fa
:04002c00dc020000f2
:020000040000fa
:04003000dc020000ee
:020000040000fa
:04003400a80200001e
:020000040000fa
:04003800dc020000e6
:020000040000fa
:04003c00dc020000e2
:020000040000fa
:04004000dc020000de
:020000040000fa
:04004400dc020000da
:020000040000fa
:04004800dc020000d6
:020000040000fa
:04004c00dc020000d2
:020000040000fa
:04005000dc020000ce
:020000040000fa
:04005400b0020000f6
:020000040000fa
:04005800be020000e4
:020000040000fa
:04005c00dc020000c2
:020000040000fa
:04006000dc020000be
:020000040000fa
:04006400dc020000ba
:020000040000fa
:04006800dc020000b6
:020000040000fa
:04006c00dc020000b2
:020000040000fa
:04007000dc020000ae
:020000040000fa
:04007400dc020000aa
:020000040000fa
:04007800dc020000a6
:020000040000fa
:04007c00dc020000a2
:020000040000fa
:04008000dc0200009e
:020000040000fa
:04008400dc0200009a
:020000040000fa
:04008800dc02000096
:020000040000fa
:04008c00dc02000092
:020000040000fa
:04009000dc0200008e
:020000040000fa
:04009400dc0200008a
:020000040000fa
:04009800dc02000086
:020000040000fa
:04009c00dc02000082
:020000040000fa
:0400a000c602000094
:020000040000fa
:0400a400d402000082
:020000040000fa
:0400a800dc02000076
:020000040000fa
:0400ac00dc02000072
:020000040000fa
:0400b000dc0200006e
:020000040000fa
:0400b400dc0200006a
:020000040000fa
:0400b800dc02000066
:020000040000fa
:0400bc00dc02000062
:020000040000fa
:0400c000dc0200005e
:020000040000fa
:0400c400dc0200005a
:020000040000fa
:0400c800dc02000056
:020000040000fa
:0400cc00dc02000052
:020000040000fa
:0400d000dc0200004e
:020000040000fa
:0400d400dc0200004a
:020000040000fa
:0400d800dc02000046
:020000040000fa
:0400dc00dc02000042
:020000040000fa
:0400e000dc0200003e
:020000040000fa
:0400e400dc0200003a
:020000040000fa
:0400e800dc02000036
:020000040000fa
:0400ec00dc02000032
:020000040000fa
:0400f000dc0200002e
:020000040000fa
:0400f400dc0200002a
:020000040000fa
:0400f800dc02000026
:020000040000fa
:0400fc00dc02000022
:020000040000fa
:04010000dc0200001d
:020000040000fa
:04010400dc02000019
:020000040000fa
:04010800dc02000015
:020000040000fa
:04010c00dc02000011
:020000040000fa
:04011000dc0200000d
:020000040000fa
:04011400dc02000009
:020000040000fa
:04011800dc02000005
:020000040000fa
:04011c00dc02000001
:020000040000fa
:04012000dc020000fd
:020000040000fa
:04012400dc020000f9
:020000040000fa
:04012800dc020000f5
:020000040000fa
:04012c00dc020000f1
:020000040000fa
:04013000dc020000ed
:020000040000fa
:04013400dc020000e9
:020000040000fa
:04013800dc020000e5
:020000040000fa
:04013c00dc020000e1
:020000040000fa
:04014000dc020000dd
:020000040000fa
:04014400dc020000d9
:020000040000fa
:04014800dc020000d5
:020000040000fa
:04014c00dc020000d1
:020000040000fa
:04015000dc020000cd
:020000040000fa
:04015400dc020000c9
:020000040000fa
:04015800dc020000c5
:020000040000fa
:04015c00dc020000c1
:020000040000fa
:04016000dc020000bd
:020000040000fa
:04016400dc020000b9
:020000040000fa
:04020800dc02000014
:020000040000fa
:04020c00dc02000010
:020000040000fa
:04021000dc0200000c
:020000040000fa
:04021400dc02000008
:020000040000fa
:04021800dc02000004
:020000040000fa
:04021c00dc02000000
:020000040000fa
:04022000dc020000fc
:020000040000fa
:04022400dc020000f8
:020000040000fa
:04022800dc020000f4
:020000040000fa
:04022c00dc020000f0
:020000040000fa
:04023000dc020000ec
:020000040000fa
:04023400dc020000e8
:020000040000fa
:04023800dc020000e4
:020000040000fa
:04023c00dc020000e0
:020000040000fa
:04024000dc020000dc
:020000040000fa
:04024400dc020000d8
:020000040000fa
:04024800dc020000d4
:020000040000fa
:04024c00dc020000d0
:020000040000fa
:04025000dc020000cc
:020000040000fa
:04025400dc020000c8
:020000040000fa
:04025800dc020000c4
:020000040000fa
:04025c00dc020000c0
:020000040000fa
:04026000dc020000bc
:020000040000fa
:04026400dc020000b8
:020000040000fa
:04026800dc020000b4
:020000040000fa
:04026c00dc020000b0
:020000040000fa
:04027000dc020000ac
:020000040000fa
:04027400dc020000a8
:020000040000fa
:04027800dc020000a4
:020000040000fa
:04027c00dc020000a0
:020000040000fa
:04028000dc0200009c
:020000040000fa
:04028400dc02000098
:020000040000fa
:04028800dc02000094
:020000040000fa
:04028c00dc02000090
:020000040000fa
:04029000dc0200008c
:020000040000fa
:04029400dc02000088
:020000040000fa
:04029800dc02000084
:020000040000fa
:04029c00dc02000080
:020000040000fa
:0402a000dc0200007c
:020000040000fa
:0402a400dc02000078
:020000040000fa
:0402a800dc02000074
:020000040000fa
:0402ac00dc02000070
:020000040000fa
:0402b000dc0200006c
:020000040000fa
:0402b400dc02000068
:020000040000fa
:0402b800dc02000064
:020000040000fa
:0402bc00dc02000060
:020000040000fa
:0402c000dc0200005c
:020000040000fa
:0402c400dc02000058
:020000040000fa
:0402c800dc02000054
:020000040000fa
:0402cc00dc02000050
:020000040000fa
:0402d000dc0200004c
:020000040000fa
:0402d400dc02000048
:020000040000fa
:0402d800dc02000044
:020000040000fa
:0402dc00dc02000040
:020000040000fa
:0402e000dc0200003c
:020000040000fa
:0402e400dc02000038
:020000040000fa
:0402e800dc02000034
:020000040000fa
:0402ec00dc02000030
:020000040000fa
:0402f000dc0200002c
:020000040000fa
:0402f400dc02000028
:020000040000fa
:0402f800dc02000024
:020000040000fa
:0402fc00dc02000020
:020000040000fa
:04030000dc0200001b
:020000040000fa
:04030400dc02000017
:020000040000fa
:04030800dc02000013
:020000040000fa
:04030c00dc0200000f
:020000040000fa
:04031000dc0200000b
:020000040000fa
:04031400dc02000007
:020000040000fa
:04031800dc02000003
:020000040000fa
:04031c00dc020000ff
:020000040000fa
:04032000dc020000fb
:020000040000fa
:04032400dc020000f7
:020000040000fa
:04032800dc020000f3
:020000040000fa
:04032c00dc020000ef
:020000040000fa
:04033000dc020000eb
:020000040000fa
:04033400dc020000e7
:020000040000fa
:04033800dc020000e3
:020000040000fa
:04033c00dc020000df
:020000040000fa
:04034000dc020000db
:020000040000fa
:04034400dc020000d7
:020000040000fa
:04034800dc020000d3
:020000040000fa
:04034c00dc020000cf
:020000040000fa
:04035000dc020000cb
:020000040000fa
:04035400dc020000c7
:020000040000fa
:04035800dc020000c3
:020000040000fa
:04035c00dc020000bf
:020000040000fa
:04036000dc020000bb
:020000040000fa
:04036400dc020000b7
:020000040000fa
:10040000af8020000e7f24000e0188000000000055
:10041000000020000000e000020032000001200087
:10042000200288000c000700e0bb20000100200033
:1004300011000700000020000000e0000200320070
:100440000000020000000000760b02000000000027
:100450000040da000000fe004440a9000001200036
:100460000000e0000300320000002000a00188002e
:100470004440a80000000600910188008000780038
:100480000000eb0015003700e280400032a0b4000d
:100490009101ba00e280400032a0b4009102ba009b
:1004a000e280400032a0b4000002eb00472bde00e7
:1004b000f507b200602ce10004003a000059eb009f
:1004c0008301e900fdff3e00040037006128e100e0
:1004d000010032000082eb000b00070011c3ba00dc
:1004e0001101ba000604e00003003a000200e00037
:1004f000e5ff3a0000000600f607b200960188000a
:1005000082007800f5ff37003159ba008301e90015
:100510000c0032002159ba008301e90008003200c2
:100520000400e00003003a00e280400032a0b40082
:10053000f5ff370011d9ba008301e900faff3a004c
:100540008100e800e180400032a0b4000000060015
:100550000000fa008460a9000080fa000040060054
:10056000801f78000000fa008560a900301180002b
:100570000080fa004f007800004006000000fa00fa
:100580008580a9000080fa0000400600801f7800e6
:100590000000fa0087c0a900b01180000080fa00b6
:1005a0004f007800004006000000fa0087e0a90034
:1005b0000080fa00004006000040da000000fe0063
:1005c0000001be001b0007000470a70003f0a1009b
:1005d00003f8a30013003a006509b10010003200cf
:1005e000090035006928e1000200350001002800fb
:1005f0000000050000004000818048008502e900fd
:10060000fcff3a0000000600f88f420005003500ac
:100610008100d1000080d3008502e800fcff3a0091
:10062000000006008000eb00000005006011b8002b
:1006300049003700c70ade00f107b200f50fb2002b
:1006400008003200e1cf4200020032000170a00039
:1006500024000500810f700001003200040805002d
:1006600044000500810f700002003a0014000500ec
:100670008502e9000000400081c04800fcff3b000b
:100680000170a00024000500889fbe008a9fbe0064
:100690008c1f7800850007008c00330003866c00f7
:1006a0006450e100240032006420e10027003200a1
:1006b0006150e100220032006120e100210032009f
:1006c0008b854200eb07b1000134b800003ab80056
:1006d0000804420089844a00013ab8000030b8009a
:1006e0008880400009014a000400330000004000f7
:1006f00081804800020149008b05e900c909dd003d
:10070000830170000100320013002000c814de00d5
:100710004814dd004709de001200b200c808de0000
:10072000088470003b00070001f0a1000cf0a70056
:1007300001f0a0006e0037006120e100700032007f
:100740000801be000200be00f7ff37006150e10063
:10075000fcff3a006a003700889fbe008a9fbe00f7
:1007600000827000040271000482710026003200d1
:100770000004be000200be006011b8006b0920003a
:10078000950220000182cf000a0039000541b10026
:100790000082cf00070039000541b1000982cf0077
:1007a000040039000541b1000882cf000100390082
:1007b0000541b10005425200120032000a003b0020
:1007c00082817100610164008100d1000080d3004a
:1007d0008984d3000884d3008b05e8000442e80034
:1007e000f7ff3a00070037000804440089844c00f2
:1007f00000004800818048008b05e9000442e900c0
:10080000f9ff3a00030007004f05be004f04be0089
:100810000000060081002000618055000b003d00b3
:100820000b00200061fe2f000100e1001d003400dc
:1008300082817100610164008904d1000884d300c1
:100840000000e800faff3a00710020006100640037
:1008500003007000020060000900320061044400df
:10086000e0844c000988a500050032008b05e800f3
:100870006808e10002003a008904d1000884d3002e
:10088000f20f20000258e10005003d00c75ddd00c9
:10089000f907b200898075000800780000000600a2
:1008a0000bf827008b007800000005000004be0054
:1008b00060ff07000003be000405be000200be008a
:1008c0005cff0700844f7500000006000200be00b8
:1008d0006450e100050036006420e10002003600ab
:1008e0000968a30001003a000800be000160a000f2
:1008f0004f0678004f05be004f04be000000060002
:0c090000f0ff2f00f1ff2700f9ff370087
:020000040000fa
:10090c00446500006275000074200000636f0000f5
:10091c006465000020500000494300000a000000fc
:020000040000fa
:10092c000000fa00413a800000fc2f0000806000bb
:10093c00403a8800103a80000080a1000090a1008d
:10094c0000a0a100103a88004207a8000000000097
:10095c00103a8000610060000000e000fcff3a00eb
:10096c0060092000303a8800203a80000060a10025
:10097c000070a100203a8800213a800000fe2f0070
:10098c00008060005000b300203a8800203a8000bc
:10099c0000c0a10000d0a10000e0a100203a880016
:1009ac00103a80000080a0000090a10000a0a100df
:1009bc00103a88004207a80000000000103a80009e
:1009cc00610060000000e000fcff3a000000000045
:1009dc00113a800000022000008060000000e0005e
:1009ec00fbff32000080fa00000006000000fa0055
:1009fc002135800000fe2f00008060000010a00058
:100a0c00203588003136800000fe2f000080600009
:100a1c003000b300303688003135800000fe2f00e6
:100a2c00008060003000b300303588002136800033
:100a3c0000fe2f00008060005000b30020368800bc
:100a4c0021e2a90022a2a900101180000060a100df
:100a5c000070a100101188002362a90023c2a90014
:100a6c00004120004011880023a2a90023e2a90024
:100a7c0022c2a90022e2a9002002a90000118000d4
:100a8c000010a1000020a100001188002062a80025
:100a9c002082a90020a2a90020c2a90020e2a9005e
:100aac00001180000080a1000090a10000118800be
:100abc002162a9002182a90021a2a90021e2a8009b
:100acc002342a80031e2a90032a2a90090118000b3
:100adc000060a1000070a100901188003362a90091
:100aec0000412000c011880033c2a90033a2a90024
:100afc0033e2a90032c2a90032e2a9003002a900f7
:100b0c00801180000010a1000020a100801188003d
:100b1c003062a8003082a90030a2a90030c2a9001e
:100b2c0030e2a900801180000080a1000090a1009b
:100b3c00801188003162a9003182a90031a2a9007c
:100b4c0031e2a8003342a8000080fa000000060041
:100b5c000000fa000080fa00000006000000fa0015
:100b6c00c1e1a800c1a1a800000e80000040a100b6
:100b7c000050a1000060a1000070a100000e8800d0
:100b8c00000e80000020a0000030a000000e8800a5
:100b9c00000e80000000a1000010a100000e8800d3
:100bac00007d2000200e8800c901a800c921a800e2
:100bbc00c941a800c881a900c801a800c8a1a90002
:100bcc00c821a800c8c1a900c841a800c1e5a80057
:100bdc00c1a5a800002e80000040a1000050a1007b
:100bec000060a1000070a100002e8800002e800083
:100bfc000020a0000030a000002e8800007d200006
:100c0c00202e8800002e80000000a1000010a10002
:100c1c00002e8800c905a800c885a900c805a80031
:100c2c00d621ef00d821ef00da21ef00d625ef0016
:100c3c000080fa00000006000000fa0007e2a8009d
:100c4c000762a9000742a9000682a9000662a90052
:100c5c000642a9000602a9000622a8000722a80045
:100c6c000080fa00000006000000fa0083e0a900f2
:100c7c008200a9008420ef008620ef008820ef007e
:100c8c008a20ef008c20ef002005800000c0a1001e
:100c9c0000d0a10000e0a100200588002005800004
:100cac000080a1000090a10000a0a10020058800f8
:100cbc00200580000040a1000050a1000060a100b0
:100ccc0020058800200580000000a1000010a10074
:100cdc000020a100200588003005800000c0a10084
:100cec0000d0a10000e0a100300588003005800094
:100cfc000080a1000090a10000a0a1003005880098
:100d0c00300580000040a1000050a1000060a1004f
:100d1c0030058800300580000000a1000010a10003
:100d2c000020a10030058800500580000000a100c3
:100d3c000010a1000020a100500588004005800093
:100d4c0000c0a00000d0a00000e0a000400588007a
:100d5c00400580000080a1000090a10000a0a1002f
:100d6c0040058800400580000040a1000050a10013
:100d7c000060a10040058800400580000000a10033
:100d8c000010a1000020a100400588005005800043
:100d9c000080a1000090a10000a0a10050058800d7
:100dac00500580000040a1000050a1000060a1008f
:100dbc0050058800500580000000a1000010a10023
:100dcc000020a100500588006005800000c0a10033
:100ddc0000d0a10000e0a100600588006005800043
:100dec000040a1000050a1000060a1006005880037
:100dfc00600580000000a1000010a1000020a100ef
:100e0c00600588007005800000c0a10000d0a10022
:100e1c0000e0a10070058800700580000080a10032
:100e2c000090a10000a0a100700588007005800052
:100e3c000000a1000010a1000020a1007005880096
:100e4c008005800000c0a10000d0a10000e0a1003e
:100e5c0080058800800580000080a1000090a10022
:100e6c0000a0a10080058800800580000040a10042
:100e7c000050a1000060a100800588008005800062
:100e8c000000a1000010a1000020a1008005880036
:100e9c009005800000c0a10000d0a10000e0a100de
:100eac0090058800900580000080a1000090a000b3
:100ebc0000a0a00090058800900580000040a100d3
:100ecc000050a1000060a1009005880090058000f2
:100edc000000a1000010a1000020a10090058800d6
:100eec00a005800000c0a10000d0a10000e0a1007e
:100efc00a0058800a00580000080a1000090a10042
:100f0c0000a0a100a0058800a00580000040a10061
:100f1c000050a1000060a100a0058800a005800081
:100f2c000000a1000010a1000020a100a005880075
:100f3c00b00580000000a1000010a1000020a1005d
:100f4c00b0058800d00580000080a1000090a100b1
:100f5c0000a0a100d0058800d00580000040a100b1
:100f6c000050a1000060a100d005880000068000a0
:100f7c000040a1000050a1000060a1000006880004
:100f8c001006800000c0a10000d0a10000e0a1006c
:100f9c0010068800100680000080a1000090a100bf
:100fac0000a0a10010068800100680000040a100df
:100fbc000050a1000060a1001006880020068000ef
:100fcc000080a1000090a10000a0a10020068800d4
:100fdc00200680000040a1000050a1000060a1008c
:100fec00200688002006800000c0a10000d0a100cf
:100ffc0000e0a10020068800300680000080a100df
:10100c000090a10000a0a1003006880030068000ee
:10101c000040a1000050a1000060a1003006880033
:10102c00300680000000a1000010a1000020a100eb
:10103c0030068800400680000080a1000090a100ce
:10104c0000a0a10040068800400680000040a100de
:10105c000050a1000060a1004006880095c0a900c6
:10106c0095a0a9009580a9009560a8009540a900bd
:10107c009520a9009500a90094e0a90094c0a900ae
:10108c0094a0a9009480a9009460a9009440a900a0
:10109c009420a9009400a90097e0a90097c0a8008b
:1010ac0097a0a9009780a9009760a9009740a90074
:1010bc009720a9009700a90096e0a90096c0a90066
:1010cc009680a9009660a9009620a9009600a90018
:1010dc0099c0a90099a0a9009880a9009860a900be
:1010ec009840a9009820a9009800a9009be0a900ad
:1010fc009bc0a9009ba0a9009b20a9009d40a90012
:10110c009d20a9009cc0a9009ca0a9009c80a900be
:10111c009c60a9009c40a9009c20a9000080fa00ba
:10112c00000006000000fa00c002a9006040a900ff
:10113c006840a900c022a9006060a9006860a900ed
:10114c00c042a9006060a9006860a900c062a90043
:10115c0063a0a9006ba0a900c082a9006000a9002f
:10116c006800a900c802a9006080a9006880a900d5
:10117c00c822a90060a0a90068a0a900c842a800c4
:10118c00c862a80060e0a90068e0a900c882a900b4
:10119c006020a9006820a900c8a2a9006360a9006a
:1011ac006b60a900c8c2a9006300a9006b00a9006c
:1011bc00c8e2a80062e0a9006ae0a800c902a80081
:1011cc0062c0a9006ac0a800c922a90062a0a90037
:1011dc006aa0a900c942a8006200a9006a00a80080
:1011ec00c962a90061e0a90069e0a900c982a80050
:1011fc0061c0a90069c0a800c9a2a90061a0a9008a
:10120c0069a0a900c9c2a9006180a9006980a900d0
:10121c00c9e2a9006160a9006960a900c402a90023
:10122c00c422a900c462a900c482a900cc02a900ee
:10123c00cc22a900cc42a900cc62a900cc82a90086
:10124c00cca2a900ccc2a900cce2a900cd02a90075
:10125c00cd22a900cd42a900cd62a900cd82a90062
:10126c00cda2a900cdc2a900cde2a90021e3a9001d
:10127c002c03a8002c23a8002c43a8002c63a80046
:10128c002c83a8002ca3a8000080fa000000060004
:10129c000a00fa004047980032079800430798006c
:1012ac006000b800008fbe004e4090000004e000cb
:1012bc0017003a006000b800008fbe000c00370029
:1012cc00c422a800006b2300010020001a010700b3
:1012dc00c422a900006b23000100200016010700a6
:1012ec0012002000030020001e0f41005e974900f1
:1012fc003e009000ce0090001e01be00800f5100f9
:10130c00818f5900eeff39000040eb001b003700c5
:10131c004e409000e14f500017003a006000b800ba
:10132c00008fbe000c003700c462a800006b2300c5
:10133c000100200000010700c462a900006b23001b
:10134c0001002000fc000700120020000300200018
:10135c001e0f41005e9749003e009000ce009000a9
:10136c001e01be00800f5100818f5900eeff390025
:10137c000040eb000100370010c0b3000080fa0001
:10138c00000006000600fa00004f780012079800d3
:10139c00230798000040eb000080fa0000000600d4
:1013ac000200fa00004f7800114798001e407800a8
:1013bc000004e0000b003a001e4090000004e00026
:1013cc0003003a000668ef00c402a90003003700ce
:1013dc0010c0b30006e8b700c402a8000040eb0040
:1013ec000f0037001e407800e14f50000b003a0010
:1013fc001e4090000004e00003003a000768ef0074
:10140c00c442a9000300370010c0b30007e8b700be
:10141c00c442a8000040eb000100370010c0b3002c
:10142c000080fa00000006000200fa00004f78006d
:10143c001e4078000004e00002003a000040eb007f
:10144c00060037001e407800e14f500002003a00c1
:10145c000040eb000100370010c0b3000080fa0020
:10146c00000006000a00fa00404798003207980076
:10147c00430798006000b800008fbe003e0090004b
:10148c00ce009000e00f5000e08f580006003d00a9
:10149c003e009000ce00900060001000e08018002c
:1014ac00008fbe00030037003e019000ce0190007b
:1014bc00028fbe004e4090000004e00003003a0092
:1014cc001e007800b00e8800110037004e409000ce
:1014dc00e14f500003003a001e007800c00e880057
:1014ec000b0037004e409000e24f500003003a00d2
:1014fc001e007800d00e8800050037004e4090008a
:10150c00e34f500002003a001e007800b02e880015
:10151c000080fa00000006000a00fa00404798001c
:10152c003207980043079800c000200001002000fb
:10153c00008fbe001e00be0039fc07003e0190006b
:10154c00ce0190004dfc07001afc0700008fbe0076
:10155c00e22e2000030020001e0f41005e97490080
:10156c001e00be000001be004e409000bdff0700f3
:10157c000080fa00000006000200fa00004f78001c
:10158c00114798001e4078000004e0000a003a0061
:10159c00000000001111800000202000008060007d
:1015ac000000e000fbff3a001e4090000080fb00b2
:1015bc00201188000c0037001e407800e14f5000cd
:1015cc0009003a000000000091118000002020006a
:1015dc00008060000000e000fbff3a001e4090001d
:1015ec000080fb00a01188000080fa0000000600bb
:1015fc000400fa00004f7800110798001e009000bc
:10160c0010407800804078001e407800daff070018
:10161c001e009000104078000080fb000000ea00e3
:10162c004f00de00004078009e0090008100e80032
:10163c00110798000004e000f0ff3a000080fa0067
:10164c00000006000400fa0020479800c482a9009c
:10165c008002200001002000370007000040eb0052
:10166c00004f780015003700cdc2a9002e40900025
:10167c008080fb001e80fb00120020000010dd00ab
:10168c00808060001e80fb000088de000040780037
:10169c00614060000080fb00610060004500dd00df
:1016ac0062168000f1fd2f008100610001007000c6
:1016bc0060168800cdc2a8001e4fe8001e407800be
:1016cc00e74f5000e8ff3600c482a80080022000db
:1016dc0001002000180007000080fa00000006003e
:1016ec000400fa00000f7800110798008cfc07002a
:1016fc008cfe0700bdfc07005bfd070017fd070013
:10170c0000a82100610020000b00070061482800a0
:10171c0010c0b300b6ff07008040eb0010c0b30050
:10172c001fff0700120020000300200010c0b300b0
:08173c00d7fe0700fbff370098
:020000040000fa
:10174400f03fb1000180b10006003500ee0309004e
:1017540000000000403fb1000180b100fbff3d00ec
:101764001000b000203fb0000200350000800900e6
:08177400000000000000060067
:020000040000fa
:10177c000808000002000000000000000008000043
:0c178c000800000000000000cc0b8000f2
:020000040000fa
:04179800000000004d
:020000040000fa
:0200000401f009
:04000000ffff0000fe
:020000040000fa
:0200000401f009
:04000400ffff0000fa
:020000040000fa
:0200000401f009
:04000800ffff0000f6
:020000040000fa
:0200000401f009
:04000c0001000000ef
:020000040000fa
:0200000401f009
:04001000a300000049
:020000040000fa
:0200000401f009
:040014005f00000089
:020000040000fa
:0200000401f009
:04001800770000006d
:020000040000fa
:0200000401f009
:04001c00dfff000002
:00000001FF
